{"abi":[{"type":"constructor","inputs":[{"name":"verifier_","type":"address","internalType":"address"}],"stateMutability":"nonpayable"},{"type":"function","name":"bitGoVerifier","inputs":[],"outputs":[{"name":"","type":"address","internalType":"address"}],"stateMutability":"view"},{"type":"function","name":"consumeStealthAttestation","inputs":[{"name":"agent","type":"address","internalType":"address"},{"name":"loanId","type":"bytes32","internalType":"bytes32"},{"name":"stealthAddress","type":"address","internalType":"address"},{"name":"bitGoAttestation","type":"bytes","internalType":"bytes"}],"outputs":[{"name":"","type":"bool","internalType":"bool"}],"stateMutability":"nonpayable"},{"type":"function","name":"getWallet","inputs":[{"name":"agent","type":"address","internalType":"address"}],"outputs":[{"name":"","type":"bytes32","internalType":"bytes32"}],"stateMutability":"view"},{"type":"function","name":"isBitGoVerified","inputs":[{"name":"","type":"address","internalType":"address"}],"outputs":[{"name":"","type":"bool","internalType":"bool"}],"stateMutability":"view"},{"type":"function","name":"linkBitGoWallet","inputs":[{"name":"walletId","type":"bytes32","internalType":"bytes32"},{"name":"signature","type":"bytes","internalType":"bytes"}],"outputs":[],"stateMutability":"nonpayable"},{"type":"function","name":"owner","inputs":[],"outputs":[{"name":"","type":"address","internalType":"address"}],"stateMutability":"view"},{"type":"function","name":"setBitGoVerifier","inputs":[{"name":"verifier","type":"address","internalType":"address"}],"outputs":[],"stateMutability":"nonpayable"},{"type":"function","name":"usedAttestations","inputs":[{"name":"","type":"bytes32","internalType":"bytes32"}],"outputs":[{"name":"","type":"bool","internalType":"bool"}],"stateMutability":"view"},{"type":"function","name":"verifyBitGoAttestation","inputs":[{"name":"message","type":"bytes32","internalType":"bytes32"},{"name":"sig","type":"bytes","internalType":"bytes"}],"outputs":[{"name":"","type":"bool","internalType":"bool"}],"stateMutability":"view"},{"type":"function","name":"walletIds","inputs":[{"name":"","type":"address","internalType":"address"}],"outputs":[{"name":"","type":"bytes32","internalType":"bytes32"}],"stateMutability":"view"},{"type":"function","name":"walletToAgent","inputs":[{"name":"","type":"bytes32","internalType":"bytes32"}],"outputs":[{"name":"","type":"address","internalType":"address"}],"stateMutability":"view"},{"type":"event","name":"BitGoVerifierUpdated","inputs":[{"name":"verifier","type":"address","indexed":true,"internalType":"address"}],"anonymous":false},{"type":"event","name":"WalletLinked","inputs":[{"name":"agent","type":"address","indexed":true,"internalType":"address"},{"name":"walletId","type":"bytes32","indexed":true,"internalType":"bytes32"}],"anonymous":false}],"bytecode":{"object":"0x60803460ba57601f610a5038819003918201601f19168301916001600160401b0383118484101760be5780849260209460405283398101031260ba57516001600160a01b0381169081900360ba5780156082575f80546001600160a01b031990811633179091556001805490911691909117905560405161097d90816100d38239f35b60405162461bcd60e51b815260206004820152601060248201526f34b73b30b634b2103b32b934b334b2b960811b6044820152606490fd5b5f80fd5b634e487b7160e01b5f52604160045260245ffdfe60806040526004361015610011575f80fd5b5f3560e01c806304d0a647146100975780631836fab7146100bf578063526010ee146100ba5780635a553572146100b55780638da5cb5b146100b05780638f0a8907146100ab578063aa9afd17146100a6578063afa19f0f146100a1578063c55976101461009c578063d5cb62c6146100975763f00caf5114610092575f80fd5b610688565b6100f4565b61064b565b610500565b6104ab565b6102b3565b61025e565b61022f565b610207565b61012c565b600435906001600160a01b03821682036100da57565b5f80fd5b604435906001600160a01b03821682036100da57565b346100da5760203660031901126100da576001600160a01b036101156100c4565b165f526002602052602060405f2054604051908152f35b346100da5760203660031901126100da576101456100c4565b5f546001600160a01b031633036101d5576001600160a01b0316801561019d57600180546001600160a01b031916821790557f43956131232b58a3aaf28ff82d0f3acd77f9d4c63ee1e79dc8f1ead1f930ec245f80a2005b60405162461bcd60e51b815260206004820152601060248201526f34b73b30b634b2103b32b934b334b2b960811b6044820152606490fd5b60405162461bcd60e51b815260206004820152600a60248201526937b7363c9037bbb732b960b11b6044820152606490fd5b346100da575f3660031901126100da576001546040516001600160a01b039091168152602090f35b346100da5760203660031901126100da576004355f526005602052602060ff60405f2054166040519015158152f35b346100da575f3660031901126100da575f546040516001600160a01b039091168152602090f35b9181601f840112156100da5782359167ffffffffffffffff83116100da57602083818601950101116100da57565b346100da5760403660031901126100da5760043560243567ffffffffffffffff81116100da576103986103926102f061039d933690600401610285565b91906102fd8615156106ba565b335f9081526002602052604090206103169054156106f7565b5f86815260036020526040902054610337906001600160a01b031615610734565b60405133606090811b6bffffffffffffffffffffffff1990811660208401908152603484018a90524660548501523090921b1660748301529061038781608881015b03601f19810183528261043e565b519020923691610465565b906107e3565b610770565b335f9081526002602052604090208190556103e3336103c4835f52600360205260405f2090565b80546001600160a01b0319166001600160a01b03909216919091179055565b335f908152600460205260409020610403905b805460ff19166001179055565b337fb20e0026439ec3f577de88ff061a27b305235cdfdec7dda6f061df1ba0280ee55f80a3005b634e487b7160e01b5f52604160045260245ffd5b90601f8019910116810190811067ffffffffffffffff82111761046057604052565b61042a565b92919267ffffffffffffffff8211610460576040519161048f601f8201601f19166020018461043e565b8294818452818301116100da578281602093845f960137010152565b346100da5760403660031901126100da5760043560243567ffffffffffffffff81116100da57366023820112156100da576020916103926104f6923690602481600401359101610465565b6040519015158152f35b346100da5760803660031901126100da576105196100c4565b6024356105246100de565b60643567ffffffffffffffff81116100da576103986103f69361039261063f96610555610631953690600401610285565b6001600160a01b0383165f90815260046020526040902054909491929061057e9060ff166108c7565b61038761058c368786610465565b60208151910120986105bf6105ba6105b66105af8d5f52600560205260405f2090565b5460ff1690565b1590565b610908565b6001600160a01b0383165f90815260026020526040902061037990546040516bffffffffffffffffffffffff19606096871b8116602083019081526034830193909352605482019790975292851b861660748401524660888401523090941b90941660a88201529192829060bc820190565b5f52600560205260405f2090565b60405160018152602090f35b346100da5760203660031901126100da576001600160a01b0361066c6100c4565b165f526004602052602060ff60405f2054166040519015158152f35b346100da5760203660031901126100da576004355f526003602052602060018060a01b0360405f205416604051908152f35b156106c157565b60405162461bcd60e51b815260206004820152600e60248201526d1a5b9d985b1a59081dd85b1b195d60921b6044820152606490fd5b156106fe57565b60405162461bcd60e51b815260206004820152600e60248201526d185b1c9958591e481b1a5b9ad95960921b6044820152606490fd5b1561073b57565b60405162461bcd60e51b815260206004820152600d60248201526c77616c6c65742065786973747360981b6044820152606490fd5b1561077757565b60405162461bcd60e51b815260206004820152601360248201527234b73b30b634b21030ba3a32b9ba30ba34b7b760691b6044820152606490fd5b60ff601b9116019060ff82116107c457565b634e487b7160e01b5f52601160045260245ffd5b6040513d5f823e3d90fd5b9060418151036108c1576020915f91838101519060606040820151910151841a92601b84106108aa575b9061087a91604051610850816103798a82019485603c917f19457468657265756d205369676e6564204d6573736167653a0a3332000000008252601c8201520190565b51902092604051948594859094939260ff6060936080840197845216602083015260408201520152565b838052039060015afa156108a5575f516001546001600160a01b03166001600160a01b039091161490565b6107d8565b92906108b861087a926107b2565b9390915061080d565b50505f90565b156108ce57565b60405162461bcd60e51b81526020600482015260126024820152711b9bdd08189a5d19dbc81d995c9a599a595960721b6044820152606490fd5b1561090f57565b60405162461bcd60e51b815260206004820152601060248201526f185d1d195cdd185d1a5bdb881d5cd95960821b6044820152606490fdfea26469706673582212205f722834c416152296d0d75225f3a92911edc1fdb098d2e091643247dd91d8b864736f6c63430008210033","linkReferences":{}},"methodIdentifiers":{"bitGoVerifier()":"526010ee","consumeStealthAttestation(address,bytes32,address,bytes)":"afa19f0f","getWallet(address)":"04d0a647","isBitGoVerified(address)":"c5597610","linkBitGoWallet(bytes32,bytes)":"8f0a8907","owner()":"8da5cb5b","setBitGoVerifier(address)":"1836fab7","usedAttestations(bytes32)":"5a553572","verifyBitGoAttestation(bytes32,bytes)":"aa9afd17","walletIds(address)":"d5cb62c6","walletToAgent(bytes32)":"f00caf51"},"id":21}