{"abi":[{"type":"constructor","inputs":[{"name":"usdc_","type":"address","internalType":"address"}],"stateMutability":"nonpayable"},{"type":"function","name":"KEEPER_REWARD_BPS","inputs":[],"outputs":[{"name":"","type":"uint256","internalType":"uint256"}],"stateMutability":"view"},{"type":"function","name":"LIQUIDATION_THRESHOLD_BPS","inputs":[],"outputs":[{"name":"","type":"uint256","internalType":"uint256"}],"stateMutability":"view"},{"type":"function","name":"PROTOCOL_FEE_BPS","inputs":[],"outputs":[{"name":"","type":"uint256","internalType":"uint256"}],"stateMutability":"view"},{"type":"function","name":"addCollateral","inputs":[{"name":"loanId","type":"bytes32","internalType":"bytes32"},{"name":"token","type":"address","internalType":"address"},{"name":"amount","type":"uint256","internalType":"uint256"}],"outputs":[],"stateMutability":"nonpayable"},{"type":"function","name":"fundInitialLoan","inputs":[{"name":"loanId","type":"bytes32","internalType":"bytes32"},{"name":"agent","type":"address","internalType":"address"},{"name":"stealthAddress","type":"address","internalType":"address"},{"name":"tokens","type":"address[]","internalType":"address[]"},{"name":"amounts","type":"uint256[]","internalType":"uint256[]"},{"name":"principal","type":"uint256","internalType":"uint256"},{"name":"aprBps","type":"uint256","internalType":"uint256"}],"outputs":[],"stateMutability":"nonpayable"},{"type":"function","name":"getCollateralRatioBps","inputs":[{"name":"loanId","type":"bytes32","internalType":"bytes32"}],"outputs":[{"name":"","type":"uint256","internalType":"uint256"}],"stateMutability":"view"},{"type":"function","name":"getCollateralValue","inputs":[{"name":"loanId","type":"bytes32","internalType":"bytes32"}],"outputs":[{"name":"","type":"uint256","internalType":"uint256"}],"stateMutability":"view"},{"type":"function","name":"getCurrentDebt","inputs":[{"name":"loanId","type":"bytes32","internalType":"bytes32"}],"outputs":[{"name":"","type":"uint256","internalType":"uint256"}],"stateMutability":"view"},{"type":"function","name":"getLoanPnl","inputs":[{"name":"","type":"bytes32","internalType":"bytes32"}],"outputs":[{"name":"","type":"int256","internalType":"int256"}],"stateMutability":"pure"},{"type":"function","name":"liquidate","inputs":[{"name":"loanId","type":"bytes32","internalType":"bytes32"}],"outputs":[],"stateMutability":"nonpayable"},{"type":"function","name":"loanCollaterals","inputs":[{"name":"","type":"bytes32","internalType":"bytes32"},{"name":"","type":"uint256","internalType":"uint256"}],"outputs":[{"name":"token","type":"address","internalType":"address"},{"name":"amount","type":"uint256","internalType":"uint256"}],"stateMutability":"view"},{"type":"function","name":"loanManager","inputs":[],"outputs":[{"name":"","type":"address","internalType":"address"}],"stateMutability":"view"},{"type":"function","name":"loans","inputs":[{"name":"","type":"bytes32","internalType":"bytes32"}],"outputs":[{"name":"agent","type":"address","internalType":"address"},{"name":"stealthAddress","type":"address","internalType":"address"},{"name":"collateral","type":"uint256","internalType":"uint256"},{"name":"principal","type":"uint256","internalType":"uint256"},{"name":"aprBps","type":"uint256","internalType":"uint256"},{"name":"totalRepaid","type":"uint256","internalType":"uint256"},{"name":"startTime","type":"uint256","internalType":"uint256"},{"name":"lastAccrual","type":"uint256","internalType":"uint256"},{"name":"active","type":"bool","internalType":"bool"},{"name":"liquidated","type":"bool","internalType":"bool"}],"stateMutability":"view"},{"type":"function","name":"previewCollateralValue","inputs":[{"name":"tokens","type":"address[]","internalType":"address[]"},{"name":"amounts","type":"uint256[]","internalType":"uint256[]"}],"outputs":[{"name":"totalValue","type":"uint256","internalType":"uint256"}],"stateMutability":"view"},{"type":"function","name":"previewSingleCollateralValue","inputs":[{"name":"token","type":"address","internalType":"address"},{"name":"amount","type":"uint256","internalType":"uint256"}],"outputs":[{"name":"","type":"uint256","internalType":"uint256"}],"stateMutability":"view"},{"type":"function","name":"processRepayment","inputs":[{"name":"loanId","type":"bytes32","internalType":"bytes32"},{"name":"amount","type":"uint256","internalType":"uint256"},{"name":"from","type":"address","internalType":"address"}],"outputs":[{"name":"remaining","type":"uint256","internalType":"uint256"}],"stateMutability":"nonpayable"},{"type":"function","name":"protocolReserves","inputs":[],"outputs":[{"name":"","type":"uint256","internalType":"uint256"}],"stateMutability":"view"},{"type":"function","name":"pullAdditionalCollateral","inputs":[{"name":"loanId","type":"bytes32","internalType":"bytes32"},{"name":"additionalCollateral","type":"uint256","internalType":"uint256"}],"outputs":[],"stateMutability":"nonpayable"},{"type":"function","name":"releaseTranche","inputs":[{"name":"loanId","type":"bytes32","internalType":"bytes32"},{"name":"amount","type":"uint256","internalType":"uint256"}],"outputs":[],"stateMutability":"nonpayable"},{"type":"function","name":"setLoanManager","inputs":[{"name":"next","type":"address","internalType":"address"}],"outputs":[],"stateMutability":"nonpayable"},{"type":"function","name":"setSupportedToken","inputs":[{"name":"token","type":"address","internalType":"address"},{"name":"supported","type":"bool","internalType":"bool"},{"name":"price","type":"uint256","internalType":"uint256"}],"outputs":[],"stateMutability":"nonpayable"},{"type":"function","name":"supportedTokens","inputs":[{"name":"","type":"address","internalType":"address"}],"outputs":[{"name":"","type":"bool","internalType":"bool"}],"stateMutability":"view"},{"type":"function","name":"tokenPrice","inputs":[{"name":"","type":"address","internalType":"address"}],"outputs":[{"name":"","type":"uint256","internalType":"uint256"}],"stateMutability":"view"},{"type":"function","name":"usdc","inputs":[],"outputs":[{"name":"","type":"address","internalType":"contract IERC20Like"}],"stateMutability":"view"},{"type":"function","name":"withdrawProtocolReserves","inputs":[{"name":"amount","type":"uint256","internalType":"uint256"},{"name":"to","type":"address","internalType":"address"}],"outputs":[],"stateMutability":"nonpayable"},{"type":"event","name":"CollateralAdded","inputs":[{"name":"loanId","type":"bytes32","indexed":true,"internalType":"bytes32"},{"name":"token","type":"address","indexed":true,"internalType":"address"},{"name":"amount","type":"uint256","indexed":false,"internalType":"uint256"},{"name":"value","type":"uint256","indexed":false,"internalType":"uint256"}],"anonymous":false},{"type":"event","name":"LoanFunded","inputs":[{"name":"loanId","type":"bytes32","indexed":true,"internalType":"bytes32"},{"name":"agent","type":"address","indexed":true,"internalType":"address"},{"name":"stealthAddress","type":"address","indexed":true,"internalType":"address"},{"name":"collateralValue","type":"uint256","indexed":false,"internalType":"uint256"},{"name":"principal","type":"uint256","indexed":false,"internalType":"uint256"}],"anonymous":false},{"type":"event","name":"LoanLiquidated","inputs":[{"name":"loanId","type":"bytes32","indexed":true,"internalType":"bytes32"},{"name":"keeper","type":"address","indexed":true,"internalType":"address"},{"name":"keeperReward","type":"uint256","indexed":false,"internalType":"uint256"},{"name":"protocolFee","type":"uint256","indexed":false,"internalType":"uint256"},{"name":"repaidDebt","type":"uint256","indexed":false,"internalType":"uint256"}],"anonymous":false},{"type":"event","name":"RepaymentProcessed","inputs":[{"name":"loanId","type":"bytes32","indexed":true,"internalType":"bytes32"},{"name":"amount","type":"uint256","indexed":false,"internalType":"uint256"},{"name":"debtLeft","type":"uint256","indexed":false,"internalType":"uint256"},{"name":"fullyRepaid","type":"bool","indexed":false,"internalType":"bool"}],"anonymous":false},{"type":"event","name":"SupportedTokenSet","inputs":[{"name":"token","type":"address","indexed":true,"internalType":"address"},{"name":"supported","type":"bool","indexed":false,"internalType":"bool"},{"name":"price","type":"uint256","indexed":false,"internalType":"uint256"}],"anonymous":false},{"type":"event","name":"TrancheReleased","inputs":[{"name":"loanId","type":"bytes32","indexed":true,"internalType":"bytes32"},{"name":"amount","type":"uint256","indexed":false,"internalType":"uint256"}],"anonymous":false}],"bytecode":{"object":"0x60a0346100f357601f611ab038819003918201601f19168301916001600160401b038311848410176100f7578084926020946040528339810103126100f357516001600160a01b038116908190036100f35780156100bf5760808190525f80546001600160a01b03191633178155908152600460209081526040808320805460ff19166001179055600590915290819020670de0b6b3a76400009055516119a4908161010c823960805181818161036401528181610fd401526118b30152f35b60405162461bcd60e51b815260206004820152600c60248201526b696e76616c6964207573646360a01b6044820152606490fd5b5f80fd5b634e487b7160e01b5f52604160045260245ffdfe60806040526004361015610011575f80fd5b5f5f3560e01c80630a71096e146111015780630c6d5a58146110e4578063250a2c86146110b8578063377c9c7b146110995780633d6eea39146110035780633e413bee14610fbe5780635772ae7014610f3657806357f3526114610e125780635da5594014610a3e5780635f13b5a714610a1f57806368c4ac26146109e05780637339a33e146109c35780637b85a369146108d457806384ba3f691461089b578063a03f628d146107fb578063a9bc5b53146107de578063b2191eaf14610787578063b3ccbcfe14610760578063b85db9831461070f578063ba4332ae146104aa578063be3782281461048e578063c4a90815146103e8578063d681a449146103ca578063e9c746c6146102cb5763fd6582681461012d575f80fd5b346102c85760603660031901126102c857600435610149611353565b906101ec6044359261016560018060a01b0386541633146115e1565b8285526002602052604085209361018b600886015460ff811690816102b9575b50611409565b6001600160a01b038216808752600460205260408720549095906101b19060ff166116bc565b80546040516323b872dd60e01b81526001600160a01b0390911660048201523060248201526044810183905293602090859081906064820190565b03818a8a5af19283156102ae57610262836002926102356040977f6769a5f9bfc8b6e0db839ab981cbf9239274ae72d2d035081a9157d43bd33cb6998d9161027f575b5061161c565b888b52600360205261025d878c2088519061024f8261148b565b8c8252846020830152611714565b611907565b910161026f82825461147e565b905582519182526020820152a380f35b6102a1915060203d6020116102a7575b61029981836114d8565b8101906116fc565b5f61022f565b503d61028f565b6040513d89823e3d90fd5b60ff915060081c16155f610185565b80fd5b50346102c8576102da366113c6565b906102ef60018060a01b0384541633146115e1565b80835260026020527f6769a5f9bfc8b6e0db839ab981cbf9239274ae72d2d035081a9157d43bd33cb6604080852093610336600886015460ff811690816102b95750611409565b8454610355906103509083906001600160a01b0316611936565b61161c565b838652600360205281862082517f00000000000000000000000000000000000000000000000000000000000000006001600160a01b03169660029290916103ad9161039f8261148b565b898252856020830152611714565b016103b982825461147e565b90558151908082526020820152a380f35b50346102c857806003193601126102c8576020600154604051908152f35b50346102c85760203660031901126102c857604061014091600435815260026020522060ff60018060a01b038254169160018060a01b03600182015416906002810154600382015460048301546005840154916006850154936008600787015496015496604051998a5260208a015260408901526060880152608087015260a086015260c085015260e0840152818116151561010084015260081c161515610120820152f35b50346102c857806003193601126102c857602060405160648152f35b50346102c85760603660031901126102c8576024356004356104ca61137f565b916104df60018060a01b0385541633146115e1565b81845260026020526040842061050e826008830195610509875460ff811690816102b95750611409565b611936565b156106d25761051c8361177a565b90600581019061052d84835461147e565b9586835542600783015583889710156105a6575b505091856060927fa6aa0214d6872c7fd11ade8f3e36d55ce52b6630dfa48e6577891e8e003a8e399460209850875f14610594575050945b604051918252858783015215156040820152a2604051908152f35b6105a092505490611471565b94610579565b805460ff19169055548487526003602052604087206001965087916001600160a01b031690875b6105d8575b50610541565b80548310156106cd5788602061063d6105f186856113dc565b50546001600160a01b03168b61060788876113dc565b50015460405163a9059cbb60e01b81526001600160a01b0388166004820152602481019190915293849283919082906044820190565b03925af19081156106c2578a916106a4575b501561065f5787809301926105cd565b60405162461bcd60e51b815260206004820152601860248201527f636f6c6c61746572616c2072657475726e206661696c656400000000000000006044820152606490fd5b6106bc915060203d81116102a75761029981836114d8565b5f61064f565b6040513d8c823e3d90fd5b6105d2565b60405162461bcd60e51b81526020600482015260156024820152741c995c185e481d1c985b9cd9995c8819985a5b1959605a1b6044820152606490fd5b50346102c85760403660031901126102c85761075860209161074f60ff6040610736611369565b6001600160a01b038116855260048752932054166116bc565b60243590611907565b604051908152f35b50346102c857806003193601126102c857546040516001600160a01b039091168152602090f35b50346102c857610796366113c6565b90825260036020526040822080548210156107da576107b592506113dc565b508054600190910154604080516001600160a01b039093168352602083019190915290f35b8280fd5b50346102c857806003193601126102c85760206040516101f48152f35b50346102c85760207f8621c0c1b7cdb39535843c18e6a31540e6ad784f37a9b91421ab53c4b8f90c1661082d366113c6565b61084460018060a09694961b0386541633146115e1565b83855260028252610891610350826040882061086e600882015460ff811690816102b95750611409565b6003810161087d83825461147e565b9055600101546001600160a01b0316611880565b604051908152a280f35b50346102c85760203660031901126102c8576020906040906001600160a01b036108c3611369565b168152600583522054604051908152f35b50346102c85760403660031901126102c85760043567ffffffffffffffff81116109bf57610906903690600401611395565b60249291923567ffffffffffffffff81116107da579161092b84933690600401611395565b829361093882821461165a565b83955b81871061094d57602086604051908152f35b90919293946109b2600191828060a01b0361097161096c8b8888611698565b6116a8565b168852600460205261098960ff60408a2054166116bc565b6109ac61099a61096c8b8888611698565b6109a58b898b611698565b3590611907565b9061147e565b960195949392919061093b565b5080fd5b50346102c85760203660031901126102c857602090604051908152f35b50346102c85760203660031901126102c85760209060ff906040906001600160a01b03610a0b611369565b168152600484522054166040519015158152f35b50346102c85760203660031901126102c857602061075860043561177a565b50346102c85760e03660031901126102c857600435610a5b611353565b610a6361137f565b9160643567ffffffffffffffff8111610e0e57610a84903690600401611395565b9060843567ffffffffffffffff8111610e0a57610aa5903690600401611395565b919060a43592610abf60018060a01b038a541633146115e1565b858952600260205260ff600860408b20015416610ddc57939190610ae485841461165a565b889489935b808510610c93575050505050610aff8186611880565b15610c57577f04dce4661e5ae50bef133963edb53ea65505e3cdcd0c28cd8d00da1cbbd9a7fb91604091600188610c346008865199610b3d8b6114bb565b848060a01b0316998a815289602082019c868060a01b03169c8d815289830189815260608401898152608085019060c435825260a086019289845260c08701944286528e8b60e08a0198428a526101008b019e8f526101208b019d8e5281526002602052209760018060a01b039060018060a01b03905116166bffffffffffffffffffffffff60a01b89541617885560018060a01b03905116600188019060018060a01b03166bffffffffffffffffffffffff60a01b8254161790555160028701555160038601555160048501555160058401555160068301555160078201550192511515839060ff801983541691151516179055565b51815461ff00191690151560081b61ff001617905582519182526020820152a480f35b60405162461bcd60e51b81526020600482015260146024820152731b1bd85b881d1c985b9cd9995c8819985a5b195960621b6044820152606490fd5b9091929395610ca661096c888488611698565b610cb1888587611698565b35918a8d610d1360208660018060a01b0387169485855260048352610cdc60ff6040872054166116bc565b6040516323b872dd60e01b81526001600160a01b039091166004820152306024820152604481019190915291829081906064820190565b038185875af1918215610dd05791610db2575b5015610d6d57600193610d62938f6109ac9360408f9261025d93815260036020522060405191610d558361148b565b8252846020830152611714565b960193929190610ae9565b60405162461bcd60e51b815260206004820152601a60248201527f636f6c6c61746572616c207472616e73666572206661696c65640000000000006044820152606490fd5b610dca915060203d81116102a75761029981836114d8565b5f610d26565b604051903d90823e3d90fd5b60405162461bcd60e51b815260206004820152600660248201526565786973747360d01b6044820152606490fd5b8680fd5b8480fd5b50346102c85760603660031901126102c857610e2c611369565b6024359081151591828103610f325760443591610e5360018060a01b0386541633146115e1565b6001600160a01b0316928315610efd578215610ec8577ffb47ee87bbd17df53c7c9211d9aef59a387757fb5f2a54fd43e1f770437635a592610ead60409386885260046020528488209060ff801983541691151516179055565b8486526005602052808387205582519182526020820152a280f35b60405162461bcd60e51b815260206004820152600d60248201526c696e76616c696420707269636560981b6044820152606490fd5b60405162461bcd60e51b815260206004820152600d60248201526c34b73b30b634b2103a37b5b2b760991b6044820152606490fd5b8380fd5b50346102c85760203660031901126102c857610f50611369565b815490610f67336001600160a01b038416146115e1565b6001600160a01b0316908115610f87576001600160a01b03191617815580f35b60405162461bcd60e51b815260206004820152600f60248201526e34b73b30b634b21036b0b730b3b2b960891b6044820152606490fd5b50346102c857806003193601126102c8576040517f00000000000000000000000000000000000000000000000000000000000000006001600160a01b03168152602090f35b50346102c85760403660031901126102c857600435611020611353565b9061103560018060a01b0384541633146115e1565b6001549081811161105c57611059926110518261035094611471565b600155611880565b80f35b60405162461bcd60e51b8152602060048201526015602482015274696e73756666696369656e7420726573657276657360581b6044820152606490fd5b50346102c85760203660031901126102c85760206107586004356114fa565b50346102c85760203660031901126102c857600260406020926004358152828452200154604051908152f35b50346102c857806003193601126102c85760206040516129048152f35b503461128857602036600319011261128857600435805f52600260205260405f20906008820180549260ff841680611344575b61113d90611409565b6111468361177a565b908115611315576002015491612710830294831595848104612710148717156112d2576111768461290492611453565b10156112e65761ffff19166101001790556101f482810290838204148517156112d257612710900493606483029083820460641417156112d25784926111c56127106111ca9304948592611471565b611471565b818111156112ca5750905b6111e18160015461147e565b6001556111ee8433611880565b1561128c575f546001600160a01b0316803b15611288575f809160246040518094819363011f7a7b60e71b83528960048401525af1801561127d57611268575b50604051938452602084015260408301527ff3a5e9da4087b8e71a1805fb2e4bae41abdcb554a0a0506f31e79988df15347360603393a380f35b6112759195505f906114d8565b5f935f61122e565b6040513d5f823e3d90fd5b5f80fd5b60405162461bcd60e51b81526020600482015260166024820152751ad9595c195c881d1c985b9cd9995c8819985a5b195960521b6044820152606490fd5b9050906111d5565b634e487b7160e01b5f52601160045260245ffd5b60405162461bcd60e51b81526020600482015260076024820152666865616c74687960c81b6044820152606490fd5b60405162461bcd60e51b81526020600482015260076024820152661b9bc81919589d60ca1b6044820152606490fd5b50600884901c60ff1615611134565b602435906001600160a01b038216820361128857565b600435906001600160a01b038216820361128857565b604435906001600160a01b038216820361128857565b9181601f840112156112885782359167ffffffffffffffff8311611288576020808501948460051b01011161128857565b6040906003190112611288576004359060243590565b80548210156113f5575f5260205f209060011b01905f90565b634e487b7160e01b5f52603260045260245ffd5b1561141057565b60405162461bcd60e51b8152602060048201526008602482015267696e61637469766560c01b6044820152606490fd5b818102929181159184041417156112d257565b811561145d570490565b634e487b7160e01b5f52601260045260245ffd5b919082039182116112d257565b919082018092116112d257565b6040810190811067ffffffffffffffff8211176114a757604052565b634e487b7160e01b5f52604160045260245ffd5b610140810190811067ffffffffffffffff8211176114a757604052565b90601f8019910116810190811067ffffffffffffffff8211176114a757604052565b805f52600260205260405f2090604051611513816114bb565b82546001600160a01b03908116825260018401541660208201526002830154604082019081526003840154606083015260048401546080830152600584015460a0830152600684015460c0830152600784015460e083015260089384015460ff80821615801561010086018190529290961c161515610120909301839052909391906115d9575b506115d2576115a89061177a565b9081156115d257519061271082029180830461271014901517156112d2576115cf91611453565b90565b50505f1990565b90505f61159a565b156115e857565b60405162461bcd60e51b815260206004820152600c60248201526b37b7363c9036b0b730b3b2b960a11b6044820152606490fd5b1561162357565b60405162461bcd60e51b815260206004820152600f60248201526e1d1c985b9cd9995c8819985a5b1959608a1b6044820152606490fd5b1561166157565b60405162461bcd60e51b815260206004820152600f60248201526e0d8cadccee8d040dad2e6dac2e8c6d608b1b6044820152606490fd5b91908110156113f55760051b0190565b356001600160a01b03811681036112885790565b156116c357565b60405162461bcd60e51b81526020600482015260116024820152703ab739bab83837b93a32b2103a37b5b2b760791b6044820152606490fd5b90816020910312611288575180151581036112885790565b8054680100000000000000008110156114a757611736916001820181556113dc565b91909161176757805182546001600160a01b0319166001600160a01b03919091161782556020015160019190910155565b634e487b7160e01b5f525f60045260245ffd5b5f52600260205260405f2060405190611792826114bb565b80546001600160a01b039081168352600182015416602083015260028101546040830152600381015460608301908152600482015460808401908152600583015460a08501908152600684015460c0860152600784015460e0860181905260089485015460ff8082161580156101008a018190529290971c1615156101209097018790529195909491611878575b506118705761184f64496cebb8009161184a61183f6118579642611471565b918551905190611440565b611440565b04905161147e565b90518181101561186a576115cf91611471565b50505f90565b505050505f90565b90505f611820565b60405163a9059cbb60e01b81526001600160a01b039091166004820152602481019190915260208180604481015b03815f7f00000000000000000000000000000000000000000000000000000000000000006001600160a01b03165af190811561127d575f916118ee575090565b6115cf915060203d6020116102a75761029981836114d8565b6001600160a01b03165f90815260056020526040902054670de0b6b3a7640000916119329190611440565b0490565b6040516323b872dd60e01b81526001600160a01b039091166004820152306024820152604481019190915260208180606481016118ae56fea2646970667358221220eb708f81d4c2b57904f70974bf084363b29abd26251a3e36a0a313a86243886264736f6c63430008210033","linkReferences":{}},"methodIdentifiers":{"KEEPER_REWARD_BPS()":"a9bc5b53","LIQUIDATION_THRESHOLD_BPS()":"0c6d5a58","PROTOCOL_FEE_BPS()":"be378228","addCollateral(bytes32,address,uint256)":"fd658268","fundInitialLoan(bytes32,address,address,address[],uint256[],uint256,uint256)":"5da55940","getCollateralRatioBps(bytes32)":"377c9c7b","getCollateralValue(bytes32)":"250a2c86","getCurrentDebt(bytes32)":"5f13b5a7","getLoanPnl(bytes32)":"7339a33e","liquidate(bytes32)":"0a71096e","loanCollaterals(bytes32,uint256)":"b2191eaf","loanManager()":"b3ccbcfe","loans(bytes32)":"c4a90815","previewCollateralValue(address[],uint256[])":"7b85a369","previewSingleCollateralValue(address,uint256)":"b85db983","processRepayment(bytes32,uint256,address)":"ba4332ae","protocolReserves()":"d681a449","pullAdditionalCollateral(bytes32,uint256)":"e9c746c6","releaseTranche(bytes32,uint256)":"a03f628d","setLoanManager(address)":"5772ae70","setSupportedToken(address,bool,uint256)":"57f35261","supportedTokens(address)":"68c4ac26","tokenPrice(address)":"84ba3f69","usdc()":"3e413bee","withdrawProtocolReserves(uint256,address)":"3d6eea39"},"id":22}