{"abi":[{"type":"constructor","inputs":[{"name":"oracleSigner_","type":"address","internalType":"address"},{"name":"bitgoRegistry_","type":"address","internalType":"address"}],"stateMutability":"nonpayable"},{"type":"function","name":"MAX_SCORE","inputs":[],"outputs":[{"name":"","type":"uint256","internalType":"uint256"}],"stateMutability":"view"},{"type":"function","name":"MIN_SCORE","inputs":[],"outputs":[{"name":"","type":"uint256","internalType":"uint256"}],"stateMutability":"view"},{"type":"function","name":"SCORE_VALIDITY","inputs":[],"outputs":[{"name":"","type":"uint256","internalType":"uint256"}],"stateMutability":"view"},{"type":"function","name":"applyDefaultPenalty","inputs":[{"name":"agent","type":"address","internalType":"address"}],"outputs":[],"stateMutability":"nonpayable"},{"type":"function","name":"applyRepaymentBonus","inputs":[{"name":"agent","type":"address","internalType":"address"}],"outputs":[],"stateMutability":"nonpayable"},{"type":"function","name":"bitGoRegistry","inputs":[],"outputs":[{"name":"","type":"address","internalType":"contract BitGoRegistry"}],"stateMutability":"view"},{"type":"function","name":"isScoreValid","inputs":[{"name":"agent","type":"address","internalType":"address"}],"outputs":[{"name":"","type":"bool","internalType":"bool"}],"stateMutability":"view"},{"type":"function","name":"latestRecords","inputs":[{"name":"","type":"address","internalType":"address"}],"outputs":[{"name":"score","type":"uint256","internalType":"uint256"},{"name":"leverageBps","type":"uint256","internalType":"uint256"},{"name":"updatedAt","type":"uint256","internalType":"uint256"}],"stateMutability":"view"},{"type":"function","name":"latestScores","inputs":[{"name":"","type":"address","internalType":"address"}],"outputs":[{"name":"","type":"uint256","internalType":"uint256"}],"stateMutability":"view"},{"type":"function","name":"oracleSigner","inputs":[],"outputs":[{"name":"","type":"address","internalType":"address"}],"stateMutability":"view"},{"type":"function","name":"owner","inputs":[],"outputs":[{"name":"","type":"address","internalType":"address"}],"stateMutability":"view"},{"type":"function","name":"scoreTimestamp","inputs":[{"name":"","type":"address","internalType":"address"}],"outputs":[{"name":"","type":"uint256","internalType":"uint256"}],"stateMutability":"view"},{"type":"function","name":"scoreToTier","inputs":[{"name":"score","type":"uint256","internalType":"uint256"}],"outputs":[{"name":"","type":"uint8","internalType":"uint8"}],"stateMutability":"pure"},{"type":"function","name":"scorers","inputs":[{"name":"","type":"address","internalType":"address"}],"outputs":[{"name":"","type":"bool","internalType":"bool"}],"stateMutability":"view"},{"type":"function","name":"setOracleSigner","inputs":[{"name":"signer","type":"address","internalType":"address"}],"outputs":[],"stateMutability":"nonpayable"},{"type":"function","name":"setScore","inputs":[{"name":"agent","type":"address","internalType":"address"},{"name":"score","type":"uint256","internalType":"uint256"},{"name":"leverageBps","type":"uint256","internalType":"uint256"}],"outputs":[],"stateMutability":"nonpayable"},{"type":"function","name":"setScorer","inputs":[{"name":"scorer","type":"address","internalType":"address"},{"name":"allowed","type":"bool","internalType":"bool"}],"outputs":[],"stateMutability":"nonpayable"},{"type":"function","name":"submitScore","inputs":[{"name":"agent","type":"address","internalType":"address"},{"name":"score","type":"uint256","internalType":"uint256"},{"name":"leverageBps","type":"uint256","internalType":"uint256"},{"name":"proofHash","type":"bytes32","internalType":"bytes32"},{"name":"issuedAt","type":"uint256","internalType":"uint256"},{"name":"oracleSignature","type":"bytes","internalType":"bytes"}],"outputs":[],"stateMutability":"nonpayable"},{"type":"function","name":"tierToAprBps","inputs":[{"name":"tier","type":"uint8","internalType":"uint8"}],"outputs":[{"name":"","type":"uint256","internalType":"uint256"}],"stateMutability":"pure"},{"type":"function","name":"tierToLtvBps","inputs":[{"name":"tier","type":"uint8","internalType":"uint8"}],"outputs":[{"name":"","type":"uint256","internalType":"uint256"}],"stateMutability":"pure"},{"type":"function","name":"usedProofHashes","inputs":[{"name":"","type":"bytes32","internalType":"bytes32"}],"outputs":[{"name":"","type":"bool","internalType":"bool"}],"stateMutability":"view"},{"type":"event","name":"OracleSignerUpdated","inputs":[{"name":"signer","type":"address","indexed":true,"internalType":"address"}],"anonymous":false},{"type":"event","name":"ScoreSubmitted","inputs":[{"name":"agent","type":"address","indexed":true,"internalType":"address"},{"name":"score","type":"uint256","indexed":false,"internalType":"uint256"},{"name":"tier","type":"uint8","indexed":false,"internalType":"uint8"},{"name":"leverageBps","type":"uint256","indexed":false,"internalType":"uint256"},{"name":"proofHash","type":"bytes32","indexed":false,"internalType":"bytes32"}],"anonymous":false},{"type":"event","name":"ScorerUpdated","inputs":[{"name":"scorer","type":"address","indexed":true,"internalType":"address"},{"name":"allowed","type":"bool","indexed":false,"internalType":"bool"}],"anonymous":false}],"bytecode":{"object":"0x60a0346100f857601f61117a38819003918201601f19168301916001600160401b038311848410176100fc5780849260409485528339810103126100f857610052602061004b83610110565b9201610110565b906001600160a01b031680156100c2573360018060a01b03195f5416175f5560018060a01b0319600154161760015560018060a01b0316608052335f52600260205260405f20600160ff19825416179055604051611055908161012582396080518181816102950152610d680152f35b60405162461bcd60e51b815260206004820152600e60248201526d696e76616c6964206f7261636c6560901b6044820152606490fd5b5f80fd5b634e487b7160e01b5f52604160045260245ffd5b51906001600160a01b03821682036100f85756fe60806040526004361015610011575f80fd5b5f3560e01c806301913d8d146101645780631110fa701461015f57806313e4f3941461015a5780631709a61b1461015557806327ff62231461015057806328bff9db1461014b57806340b892701461014657806345245128146101415780634d7fc7091461013c5780635d0dfa3914610137578063826a406d146101325780638da5cb5b1461012d578063ad3c981a14610128578063b316886014610123578063b7996c5a1461011e578063b7dc3ddc14610119578063be39c7fa14610114578063d87318b21461010f578063e018cf641461010a578063e9f50e46146101055763ed2484c714610100575f80fd5b6106c1565b610689565b61063a565b61060b565b6105d2565b61059a565b610582565b610549565b6104be565b61048d565b610464565b610447565b61040a565b6103ea565b6103b2565b610308565b6102ec565b6102c4565b610280565b6101e8565b610183565b600435906001600160a01b038216820361017f57565b5f80fd5b3461017f57602036600319011261017f576001600160a01b036101a4610169565b165f526003602052600260405f200154801515806101ca575b6020906040519015158152f35b5062093a8081018091116101e3576020904211156101bd565b610733565b3461017f57606036600319011261017f57610266610204610169565b60243560443591335f52600260205261022360ff60405f205416610764565b6102376001600160a01b038216151561079e565b61012c82101580610274575b61024c906107da565b611f4083101580610268575b6102619061081b565b610ea0565b005b50612ee0831115610258565b50610352821115610243565b3461017f575f36600319011261017f576040517f00000000000000000000000000000000000000000000000000000000000000006001600160a01b03168152602090f35b3461017f575f36600319011261017f576001546040516001600160a01b039091168152602090f35b3461017f575f36600319011261017f5760206040516103528152f35b3461017f57602036600319011261017f57610321610169565b61033560018060a01b035f5416331461085a565b6001600160a01b0316801561037c57600180546001600160a01b031916821790557f9787ad339c4bc9e4b4743a2e50da52ee5b40e7096843872095b8280a501522465f80a2005b60405162461bcd60e51b815260206004820152600e60248201526d696e76616c6964206f7261636c6560901b6044820152606490fd5b3461017f575f36600319011261017f57602060405161012c8152f35b602090600319011261017f5760043560ff8116810361017f5790565b3461017f5760206104026103fd366103ce565b610893565b604051908152f35b3461017f57602036600319011261017f576001600160a01b0361042b610169565b165f526002602052602060ff60405f2054166040519015158152f35b3461017f575f36600319011261017f57602060405162093a808152f35b3461017f57602036600319011261017f5760206104826004356108e5565b60ff60405191168152f35b3461017f575f36600319011261017f575f546040516001600160a01b039091168152602090f35b8015150361017f57565b3461017f57604036600319011261017f576104d7610169565b7fcbe8ccafb0be8e97be60a968b2040f8d91c20192441e93a2ba86ec168adecb8d602060243592610507846104b4565b61051b60018060a01b035f5416331461085a565b60018060a01b031692835f526002825260405f2060ff1981541660ff831515161790556040519015158152a2005b3461017f57602036600319011261017f57610266610565610169565b335f52600260205261057d60ff60405f205416610764565b610937565b3461017f576020610402610595366103ce565b6109c2565b3461017f57602036600319011261017f576001600160a01b036105bb610169565b165f526004602052602060405f2054604051908152f35b3461017f57602036600319011261017f576102666105ee610169565b335f52600260205261060660ff60405f205416610764565b610a14565b3461017f57602036600319011261017f576004355f526006602052602060ff60405f2054166040519015158152f35b3461017f57602036600319011261017f576001600160a01b0361065b610169565b165f526003602052606060405f20805490600260018201549101549060405192835260208301526040820152f35b3461017f57602036600319011261017f576001600160a01b036106aa610169565b165f526005602052602060405f2054604051908152f35b3461017f5760c036600319011261017f576106da610169565b60a435906024359060843560643560443567ffffffffffffffff861161017f573660238701121561017f5785600401359467ffffffffffffffff861161017f57366024878901011161017f576024610266970194610c02565b634e487b7160e01b5f52601160045260245ffd5b90610e1082018092116101e357565b90601982018092116101e357565b1561076b57565b60405162461bcd60e51b815260206004820152600b60248201526a37b7363c9039b1b7b932b960a91b6044820152606490fd5b156107a557565b60405162461bcd60e51b815260206004820152600d60248201526c1a5b9d985b1a59081859d95b9d609a1b6044820152606490fd5b156107e157565b60405162461bcd60e51b815260206004820152601260248201527173636f7265206f7574206f662072616e676560701b6044820152606490fd5b1561082257565b60405162461bcd60e51b815260206004820152601060248201526f696e76616c6964206c6576657261676560801b6044820152606490fd5b1561086157565b60405162461bcd60e51b815260206004820152600a60248201526937b7363c9037bbb732b960b11b6044820152606490fd5b60ff16600581146108de57600481146108d757600381146108d057600281146108c9576001146108c357610bb890565b61119490565b5061177090565b50611d4c90565b5061213490565b5061232890565b610320811015610931576102e481101561092b5761029e8110156109255761024481101561091f576101f4111561091a575f90565b600190565b50600290565b50600390565b50600490565b50600590565b6001600160a01b0381165f8181526003602052604090205490919080156109bd57601981018091116101e3576109909261035282116109b3575b5f526003602052600160405f200154155f146109925761271091610ea0565b565b6001600160a01b0382165f9081526003602052604090206001015491610ea0565b6103529150610971565b505050565b60ff1660058114610a0d5760048114610a0657600381146109ff57600281146109f8576001146109f257610bb890565b6107d090565b5061057890565b5061038490565b5061025890565b5061019090565b6001600160a01b0381165f90815260036020526040902054908115610a95576064821115610a885760631982019182116101e357610990915b61012c8110610a7f575b6001600160a01b0382165f908152600360205260409020600101546109925761271091610ea0565b5061012c610a57565b610990915061012c610a4d565b5050565b15610aa057565b60405162461bcd60e51b815260206004820152600a6024820152691c1c9bdbd9881d5cd95960b21b6044820152606490fd5b15610ad957565b60405162461bcd60e51b815260206004820152601160248201527039ba30b6329030ba3a32b9ba30ba34b7b760791b6044820152606490fd5b634e487b7160e01b5f52604160045260245ffd5b90601f8019910116810190811067ffffffffffffffff821117610b4857604052565b610b12565b92919267ffffffffffffffff8211610b485760405191610b77601f8201601f191660200184610b26565b82948184528183011161017f578281602093845f960137010152565b15610b9a57565b60405162461bcd60e51b815260206004820152601860248201527f696e76616c6964206f7261636c65207369676e617475726500000000000000006044820152606490fd5b9081602091031261017f5751610bf4816104b4565b90565b6040513d5f823e3d90fd5b6001600160a01b0381169690959294919392849291908490610c258a151561079e565b888861012c871015610d4097610d04610d2398610c8e610c89610c85610c7e610d1d9b88610d1299610e94575b610c5b906107da565b611f408a101580610e88575b610c709061081b565b5f52600660205260405f2090565b5460ff1690565b1590565b610a99565b610ca2610c9a82610747565b421115610ad2565b8b604051958694602086019846308b95939160c8979593916bffffffffffffffffffffffff199060601b16875260148701526bffffffffffffffffffffffff199060601b16603486015260488501526068840152608883015260a88201520190565b03601f198101835282610b26565b519020923691610b4d565b90610f28565b6001546001600160a01b03166001600160a01b0390911614610b93565b604051630c55976160e41b81526001600160a01b0385166004820152602081806024810103817f00000000000000000000000000000000000000000000000000000000000000006001600160a01b03165afa948515610e83577fca8e6d56123cb78a960874ffa5d55cfa74a3abe9b6e032be4d4979aac3d7b1b29585925f91610e54575b50610e2b575b829184610df692610261610de9610e26975f52600660205260405f2090565b805460ff19166001179055565b610dff836108e5565b93604051948594859094939260ff6060936080840197845216602083015260408201520152565b0390a2565b92610e369150610756565b90836103528311610e4a575b909192610dca565b6103529250610e42565b610e76915060203d602011610e7c575b610e6e8183610b26565b810190610bdf565b5f610dc4565b503d610e64565b610bf7565b50612ee08a1115610c67565b50610352881115610c52565b9160405190606082019082821067ffffffffffffffff831117610b485760409182528383526020808401918252428484018181526001600160a01b03979097165f908152600383528481209551865592516001860155955160029094019390935560048352818120939093556005909152902055565b60ff601b9116019060ff82116101e357565b906041815103610fe9576020915f91838101519060606040820151910151841a92601b8410610fd2575b90610fbf91604051610f9581610d048a82019485603c917f19457468657265756d205369676e6564204d6573736167653a0a3332000000008252601c8201520190565b51902092604051948594859094939260ff6060936080840197845216602083015260408201520152565b838052039060015afa15610e83575f5190565b9290610fe0610fbf92610f16565b93909150610f52565b60405162461bcd60e51b815260206004820152600e60248201526d0c4c2c840e6d2ce40d8cadccee8d60931b6044820152606490fdfea26469706673582212206630898b83be3f01fe9e1d0338d2d70471c5e24a69d25e7587c5aef50e141cca64736f6c63430008210033","linkReferences":{}},"methodIdentifiers":{"MAX_SCORE()":"27ff6223","MIN_SCORE()":"40b89270","SCORE_VALIDITY()":"5d0dfa39","applyDefaultPenalty(address)":"be39c7fa","applyRepaymentBonus(address)":"b3168860","bitGoRegistry()":"13e4f394","isScoreValid(address)":"01913d8d","latestRecords(address)":"e018cf64","latestScores(address)":"b7dc3ddc","oracleSigner()":"1709a61b","owner()":"8da5cb5b","scoreTimestamp(address)":"e9f50e46","scoreToTier(uint256)":"826a406d","scorers(address)":"4d7fc709","setOracleSigner(address)":"28bff9db","setScore(address,uint256,uint256)":"1110fa70","setScorer(address,bool)":"ad3c981a","submitScore(address,uint256,uint256,bytes32,uint256,bytes)":"ed2484c7","tierToAprBps(uint8)":"b7996c5a","tierToLtvBps(uint8)":"45245128","usedProofHashes(bytes32)":"d87318b2"},"id":23}