{"abi":[{"type":"constructor","inputs":[{"name":"verifier_","type":"address","internalType":"address"},{"name":"vault_","type":"address","internalType":"address"},{"name":"stealth_","type":"address","internalType":"address"},{"name":"bitgo_","type":"address","internalType":"address"},{"name":"resolver_","type":"address","internalType":"address"}],"stateMutability":"nonpayable"},{"type":"function","name":"GRACE_PERIOD","inputs":[],"outputs":[{"name":"","type":"uint256","internalType":"uint256"}],"stateMutability":"view"},{"type":"function","name":"PHASE_COUNT","inputs":[],"outputs":[{"name":"","type":"uint256","internalType":"uint256"}],"stateMutability":"view"},{"type":"function","name":"PHASE_INTERVAL","inputs":[],"outputs":[{"name":"","type":"uint256","internalType":"uint256"}],"stateMutability":"view"},{"type":"function","name":"agentLoans","inputs":[{"name":"","type":"address","internalType":"address"},{"name":"","type":"uint256","internalType":"uint256"}],"outputs":[{"name":"","type":"bytes32","internalType":"bytes32"}],"stateMutability":"view"},{"type":"function","name":"assetQualityBps","inputs":[{"name":"","type":"address","internalType":"address"}],"outputs":[{"name":"","type":"uint256","internalType":"uint256"}],"stateMutability":"view"},{"type":"function","name":"bitGoRegistry","inputs":[],"outputs":[{"name":"","type":"address","internalType":"contract BitGoRegistry"}],"stateMutability":"view"},{"type":"function","name":"collateralVault","inputs":[],"outputs":[{"name":"","type":"address","internalType":"contract CollateralVault"}],"stateMutability":"view"},{"type":"function","name":"creditVerifier","inputs":[],"outputs":[{"name":"","type":"address","internalType":"contract CreditVerifier"}],"stateMutability":"view"},{"type":"function","name":"extendMilestone","inputs":[{"name":"loanId","type":"bytes32","internalType":"bytes32"},{"name":"extensionSeconds","type":"uint256","internalType":"uint256"}],"outputs":[],"stateMutability":"nonpayable"},{"type":"function","name":"getQuote","inputs":[{"name":"collateralTokens","type":"address[]","internalType":"address[]"},{"name":"collateralAmounts","type":"uint256[]","internalType":"uint256[]"}],"outputs":[{"name":"score","type":"uint256","internalType":"uint256"},{"name":"tier","type":"uint8","internalType":"uint8"},{"name":"aprBps","type":"uint256","internalType":"uint256"},{"name":"maxPrincipal","type":"uint256","internalType":"uint256"}],"stateMutability":"view"},{"type":"function","name":"hasActiveLoan","inputs":[{"name":"","type":"address","internalType":"address"}],"outputs":[{"name":"","type":"bool","internalType":"bool"}],"stateMutability":"view"},{"type":"function","name":"loanCollateralPlans","inputs":[{"name":"","type":"bytes32","internalType":"bytes32"},{"name":"","type":"uint256","internalType":"uint256"}],"outputs":[{"name":"token","type":"address","internalType":"address"},{"name":"totalAmount","type":"uint256","internalType":"uint256"},{"name":"postedAmount","type":"uint256","internalType":"uint256"}],"stateMutability":"view"},{"type":"function","name":"loanCounter","inputs":[],"outputs":[{"name":"","type":"uint256","internalType":"uint256"}],"stateMutability":"view"},{"type":"function","name":"loans","inputs":[{"name":"","type":"bytes32","internalType":"bytes32"}],"outputs":[{"name":"agent","type":"address","internalType":"address"},{"name":"stealthAddress","type":"address","internalType":"address"},{"name":"scoreAtOpen","type":"uint256","internalType":"uint256"},{"name":"tierAtOpen","type":"uint8","internalType":"uint8"},{"name":"aprBps","type":"uint256","internalType":"uint256"},{"name":"targetPrincipal","type":"uint256","internalType":"uint256"},{"name":"targetCollateral","type":"uint256","internalType":"uint256"},{"name":"releasedPrincipal","type":"uint256","internalType":"uint256"},{"name":"postedCollateral","type":"uint256","internalType":"uint256"},{"name":"phase","type":"uint8","internalType":"uint8"},{"name":"lastPhaseAt","type":"uint256","internalType":"uint256"},{"name":"active","type":"bool","internalType":"bool"},{"name":"repaid","type":"bool","internalType":"bool"},{"name":"liquidated","type":"bool","internalType":"bool"}],"stateMutability":"view"},{"type":"function","name":"openLoan","inputs":[{"name":"collateralTokens","type":"address[]","internalType":"address[]"},{"name":"collateralAmounts","type":"uint256[]","internalType":"uint256[]"},{"name":"totalPrincipal","type":"uint256","internalType":"uint256"},{"name":"stealthAddress","type":"address","internalType":"address"},{"name":"attestOrSignature","type":"bytes","internalType":"bytes"}],"outputs":[{"name":"loanId","type":"bytes32","internalType":"bytes32"}],"stateMutability":"nonpayable"},{"type":"function","name":"owner","inputs":[],"outputs":[{"name":"","type":"address","internalType":"address"}],"stateMutability":"view"},{"type":"function","name":"progressMilestone","inputs":[{"name":"loanId","type":"bytes32","internalType":"bytes32"}],"outputs":[],"stateMutability":"nonpayable"},{"type":"function","name":"recordDefault","inputs":[{"name":"loanId","type":"bytes32","internalType":"bytes32"}],"outputs":[],"stateMutability":"nonpayable"},{"type":"function","name":"repay","inputs":[{"name":"loanId","type":"bytes32","internalType":"bytes32"},{"name":"amount","type":"uint256","internalType":"uint256"}],"outputs":[],"stateMutability":"nonpayable"},{"type":"function","name":"resolver","inputs":[],"outputs":[{"name":"","type":"address","internalType":"contract ZKCreditResolver"}],"stateMutability":"view"},{"type":"function","name":"setAssetQuality","inputs":[{"name":"token","type":"address","internalType":"address"},{"name":"qualityBps","type":"uint256","internalType":"uint256"}],"outputs":[],"stateMutability":"nonpayable"},{"type":"function","name":"setZKCreditVerifier","inputs":[{"name":"zkVerifier_","type":"address","internalType":"address"}],"outputs":[],"stateMutability":"nonpayable"},{"type":"function","name":"stealthRegistry","inputs":[],"outputs":[{"name":"","type":"address","internalType":"contract StealthRegistry"}],"stateMutability":"view"},{"type":"function","name":"triggerDefault","inputs":[{"name":"loanId","type":"bytes32","internalType":"bytes32"},{"name":"reason","type":"string","internalType":"string"}],"outputs":[],"stateMutability":"nonpayable"},{"type":"function","name":"zkCreditVerifier","inputs":[],"outputs":[{"name":"","type":"address","internalType":"contract ZKCreditVerifier"}],"stateMutability":"view"},{"type":"event","name":"DefaultTriggered","inputs":[{"name":"loanId","type":"bytes32","indexed":true,"internalType":"bytes32"},{"name":"reason","type":"string","indexed":false,"internalType":"string"}],"anonymous":false},{"type":"event","name":"LoanOpened","inputs":[{"name":"loanId","type":"bytes32","indexed":true,"internalType":"bytes32"},{"name":"agent","type":"address","indexed":true,"internalType":"address"},{"name":"stealthAddress","type":"address","indexed":true,"internalType":"address"}],"anonymous":false},{"type":"event","name":"LoanRepaid","inputs":[{"name":"loanId","type":"bytes32","indexed":true,"internalType":"bytes32"}],"anonymous":false},{"type":"event","name":"MilestoneExtended","inputs":[{"name":"loanId","type":"bytes32","indexed":true,"internalType":"bytes32"},{"name":"extensionSeconds","type":"uint256","indexed":false,"internalType":"uint256"},{"name":"newCheckpoint","type":"uint256","indexed":false,"internalType":"uint256"}],"anonymous":false},{"type":"event","name":"MilestoneProgressed","inputs":[{"name":"loanId","type":"bytes32","indexed":true,"internalType":"bytes32"},{"name":"phase","type":"uint8","indexed":false,"internalType":"uint8"},{"name":"collateralAdded","type":"uint256","indexed":false,"internalType":"uint256"},{"name":"principalReleased","type":"uint256","indexed":false,"internalType":"uint256"}],"anonymous":false},{"type":"event","name":"ZKVerifierUpdated","inputs":[{"name":"zkVerifier","type":"address","indexed":true,"internalType":"address"}],"anonymous":false}],"bytecode":{"object":"0x6101203461016b57601f612e7938819003918201601f19168301916001600160401b0383118484101761016f5780849260a09460405283398101031261016b5761004881610183565b9061005560208201610183565b61006160408301610183565b9061007a608061007360608601610183565b9401610183565b6001600160a01b0394851660805290841660a05290831660c05290821660e05216610100525f80546001600160a01b03191633179055604051612ce190816101988239608051818181611072015281816114b0015281816118110152818161204f015261234e015260a0518181816106110152818161068b015281816106c8015281816107660152818161177401528181611b7301528181611ed401528181611fd80152612640015260c05181818161048b01528181610ee801526114f6015260e051818181610449015281816112450152611a810152610100518181816109ab01528181611f4401526128e50152f35b5f80fd5b634e487b7160e01b5f52604160045260245ffd5b51906001600160a01b038216820361016b5756fe60a06040526004361015610011575f80fd5b5f6080525f3560e01c8062f989ad14611f7357806304f3bcec14611f2d57806308ac0da714611f035780630bece79c14611ebd57806311d4fc7414611ab057806313e4f39414611a6a5780631922e80d14611a4b57806321d4f8db14611a0a5780632df6c3ad1461198d57806334d9289e1461196e578063664be4b6146116dd578063826c56aa146116a15780638b1b1549146116455780638c8bb005146115ca5780638da5cb5b1461159f5780638fbd3d801461157d5780639dff555614611525578063a7433704146114df578063b05c30d514611499578063c1a287e21461147a578063c4a908151461139c578063f6c9bbd914610304578063f91e2cfc146101f9578063fd2445bf146101525763fe66485c1461012f575f80fd5b3461014c5760805136600319011261014c57602060405160048152f35b60805180fd5b3461014c57604036600319011261014c5761016b612144565b6024359061018560018060a01b0360805154163314612605565b611f40821015806101ed575b156101b65760018060a01b031660805152600760205260406080512055608051608051f35b60405162461bcd60e51b815260206004820152600f60248201526e696e76616c6964207175616c69747960881b6044820152606490fd5b50612ee0821115610191565b3461014c576102073661212e565b81608051526003602052604060805120610236600b82015460ff811690816102f4575b816102e5575b506121f9565b61024a60018060a01b038254163314612281565b811515806102d8575b1561029f577ff09b81708a6ba2dbfc5d3201dc807395c44b08d26a04f0a8e81cee44b002482a91600a6040920161028b8282546122ba565b80915582519182526020820152a260805180f35b60405162461bcd60e51b815260206004820152601160248201527034b73b30b634b21032bc3a32b739b4b7b760791b6044820152606490fd5b5062093a80821115610253565b60ff915060101c161585610230565b905060ff8160081c16159061022a565b3461014c5760a036600319011261014c576004356001600160401b03811161014c5761033490369060040161215a565b6024356001600160401b03811161014c5761035390369060040161215a565b926064359290916001600160a01b038416840361014c576084356001600160401b03811161014c5761038990369060040161218a565b95903360805152600660205260ff604060805120541661136957631dcd650060443510611333578184148061132a575b156112f0576103ca8284868861232e565b604494919294351115806112df575b156112a557600460ff8516101580611229575b611051575b6103fc6002546126ff565b8060025560405160208101913360601b8352466034830152605482015260548152610428607482612260565b519020604051630c55976160e41b8152336004820152909a906020816024817f00000000000000000000000000000000000000000000000000000000000000006001600160a01b03165afa908115610c065760805191611022575b5015610ed3577f00000000000000000000000000000000000000000000000000000000000000006001600160a01b031691823b1561014c57604051631d2cb05960e21b8152336004820152602481018d90526001600160a01b038c16604482015260806064820181905251909390928492839182916105069160848401916125e5565b0391608051905af18015610c0657610eba575b505b61052486612bbb565b906105326040519283612260565b868252601f1961054188612bbb565b0136602084013761055187612bbb565b61055e6040519182612260565b878152601f1961056d89612bbb565b013660208301376080515b888110610e44575060443560031981169060021c80820460041481151715610d75576105a96105af926044356122db565b906122ba565b9160405191637b85a36960e01b835289604484016040600486015252606483018b6080515b8c8110610e125750508381036003190160248501528881526001600160fb1b03891161014c57836020818c82948d60051b809285830137010301817f00000000000000000000000000000000000000000000000000000000000000006001600160a01b03165afa928315610c065760805193610dde575b5060405194637b85a36960e01b86526040600487015260208680610687610675604483018661270d565b82810360031901602484015286612749565b03817f00000000000000000000000000000000000000000000000000000000000000006001600160a01b03165afa958615610c065760805196610da6575b507f00000000000000000000000000000000000000000000000000000000000000006001600160a01b03163b1561014c57604051630176956560e61b8152600481018f90523360248201526001600160a01b038e16604482015260e060648201529161074b916107399060e485019061270d565b83810360031901608485015290612749565b60a4820185905260c4820183905260805190829081900381837f00000000000000000000000000000000000000000000000000000000000000006001600160a01b03165af18015610c0657610d8d575b50600b958c6080515260036020526040608051209560018060a01b0333166001600160601b0360a01b885416178755600187018d60018060a01b03166001600160601b0360a01b825416179055600287015560ff60038701911660ff198254161790556004850155604435600585015560068401556007830155600882015560098101600160ff1982541617905542600a82015501600160ff198254161790556080515b838110610c5d57868633608051526006602052604060805120600160ff19825416179055336080515260056020526040608051208054600160401b811015610c4557610890916001820181556121e4565b81549060031b9084821b915f19901b191617905581608051526003602052604060805120916040516108c181612230565b83549360018060a01b038516825260018060a01b0360018201541660208301526002810154946040830195865260ff600b81600385015416936060860194855260048101546080870152600581015460a0870152600681015460c0870152600781015460e0870152600881015461010087015282600982015416610120870152600a81015461014087015201548181161515610160860152818160081c16151561018086015260101c1615156101a084015260405160208101916001600160601b03199060601b1682526014815261099a603482612260565b519020915191946001600160a01b037f000000000000000000000000000000000000000000000000000000000000000081169316833b1561014c5760405190637488a1c360e01b8252876004830152602482015260805181604481608051885af18015610c0657610c2c575b50610a119051612be6565b823b1561014c576040519063043c4ea360e21b825286600483015260606024830152600e60648301526d7a6b6372656469742e73636f726560901b608483015260a060448301528180610a6b6080519360a48301906127a0565b0381608051875af18015610c0657610c13575b5060ff610a8c915116612be6565b813b1561014c576040519063043c4ea360e21b825285600483015260606024830152600d60648301526c3d35b1b932b234ba173a34b2b960991b608483015260a060448301528180610ae56080519360a48301906127a0565b0381608051865af18015610c0657610bed575b50604080519094610b098683612260565b60048252637472756560e01b6020830152823b1561014c57855192839163043c4ea360e21b835260048301526060602483015260136064830152723d35b1b932b234ba1730b1ba34bb32a637b0b760691b608483015260a060448301528180610b796080519560a48301906127a0565b0391608051905af18015610be157610bc8575b50602092519160018060a01b031633827f18746f8bdaa10cffb0bae5785fce8e4a8ef2785bc64d1606061374f8c2da1328608051608051a48152f35b608051610bd491612260565b60805161014c5783610b8c565b84513d608051823e3d90fd5b608051610bf991612260565b60805161014c5784610af8565b6040513d608051823e3d90fd5b608051610c1f91612260565b60805161014c5785610a7e565b608051610c3891612260565b60805161014c5786610a06565b634e487b7160e01b6080515260416004526024608051fd5b610c6881838561277c565b358060021c610c7883858761277c565b3591600319169181830460041482151715610d7557610c9a926105a9916122db565b908760805152600460205260406080512091610cbf610cba83888a61277c565b61278c565b610cca83868861277c565b359360405191606083018381106001600160401b03821117610c455760405260018060a01b0316825260208201948552604082019283528054600160401b811015610c4557610d1e916001820181556121b7565b929092610d5c57905182546001600160a01b0319166001600160a01b039190911617825592516001828101919091559251600291909101550161083f565b634e487b7160e01b608051526080516004526024608051fd5b634e487b7160e01b6080515260116004526024608051fd5b608051610d9991612260565b60805161014c578c61079b565b9095506020813d602011610dd6575b81610dc260209383612260565b81010312610dd25751948e6106c5565b5f80fd5b3d9150610db5565b9092506020813d602011610e0a575b81610dfa60209383612260565b81010312610dd25751918d61064b565b3d9150610ded565b90918235906001600160a01b038216820361014c576001600160a01b03909116815260209081019201906001016105d4565b610e4f81888a61277c565b35908160021c610e60828a8c61277c565b3592600319169281840460041482151715610d7557610cba838d8f94610e8f906105a9600199610e95976122db565b9461277c565b610e9f8388612bd2565b90848060a01b03169052610eb38285612bd2565b5201610578565b608051610ec691612260565b60805161014c5789610519565b604051631655428960e11b81523360048201527f00000000000000000000000000000000000000000000000000000000000000006001600160a01b03169290602081602481875afa908115610c065760805191610ff0575b5015610fb457823b1561014c576040516235b53960e01b81523360048201526001600160a01b038c166024820152604481018d90526080606482018190525190939092849283918291610f829160848401916125e5565b0391608051905af18015610c0657610f9b575b5061051b565b608051610fa791612260565b60805161014c5789610f95565b60405162461bcd60e51b81526020600482015260146024820152736d697373696e67206d6574612d6164647265737360601b6044820152606490fd5b90506020813d60201161101a575b8161100b60209383612260565b8101031261014c57518d610f2b565b3d9150610ffe565b611044915060203d60201161104a575b61103c8183612260565b8101906122e8565b8c610483565b503d611032565b61105d8587898b612b40565b60405163380633d960e21b81523360048201527f00000000000000000000000000000000000000000000000000000000000000006001600160a01b031690606081602481855afa908115610c0657608051916111f7575b50806111f15750612710905b6127106044350291604435830461271014604435151715610d75576305f5e10060443502928084046127101490151715610d75576020602492604051938480926308a48a2560e31b8252600360048301525afa8015610c0657608051906111bd575b61112c925061231b565b9081156111a5570411156103f15760405162461bcd60e51b815260206004820152603760248201527f5469657220342b20726571756972657320426974476f2076657269666963617460448201527f696f6e206f7220657874726120636f6c6c61746572616c0000000000000000006064820152608490fd5b634e487b7160e01b6080515260126004526024608051fd5b506020823d6020116111e9575b816111d760209383612260565b81010312610dd25761112c9151611122565b3d91506111ca565b906110c0565b611219915060603d606011611222575b6112118183612260565b810190612300565b5090508d6110b4565b503d611207565b50604051630c55976160e41b81523360048201526020816024817f00000000000000000000000000000000000000000000000000000000000000006001600160a01b03165afa908115610c065760805191611286575b50156103ec565b61129f915060203d60201161104a5761103c8183612260565b8b61127f565b60405162461bcd60e51b81526020600482015260126024820152710e0e4d2dcc6d2e0c2d840e8dede40d0d2ced60731b6044820152606490fd5b5064174876e80060443511156103d9565b60405162461bcd60e51b81526020600482015260126024820152711a5b9d985b1a590818dbdb1b185d195c985b60721b6044820152606490fd5b508315156103b9565b60405162461bcd60e51b815260206004820152600e60248201526d3132b637bb9036b4b7103637b0b760911b6044820152606490fd5b60405162461bcd60e51b815260206004820152600b60248201526a30b1ba34bb32903637b0b760a91b6044820152606490fd5b3461014c57602036600319011261014c576004356080515260036020526101c060406080512060ff60018060a01b038254169160018060a01b0360018201541690600281015483600383015416600483015460058401546006850154906007860154926008870154948960098901541696600b600a8a0154990154996040519c8d5260208d015260408c015260608b015260808a015260a089015260c088015260e08701526101008601526101208501526101408401528181161515610160840152818160081c16151561018084015260101c1615156101a0820152f35b3461014c5760805136600319011261014c5760206040516202a3008152f35b3461014c5760805136600319011261014c576040517f00000000000000000000000000000000000000000000000000000000000000006001600160a01b03168152602090f35b3461014c5760805136600319011261014c576040517f00000000000000000000000000000000000000000000000000000000000000006001600160a01b03168152602090f35b3461014c57604036600319011261014c5761153e612144565b6024359060018060a01b0316608051526005602052604060805120805482101561014c5760209161156e916121e4565b90549060031b1c604051908152f35b3461014c57602036600319011261014c5761159960043561263e565b60805180f35b3461014c5760805136600319011261014c57608051546040516001600160a01b039091168152602090f35b3461014c57602036600319011261014c576115e3612144565b6115f960018060a01b0360805154163314612605565b600180546001600160a01b0319166001600160a01b039290921691821790556080517f2fadc0891714fa41e7f55f209372ca5b5a9201adf8309fccc95087224da196479080a260805180f35b3461014c576116533661212e565b90608051526004602052604060805120805482101561014c57606091611678916121b7565b5060018060a01b0381541690600260018201549101549060405192835260208301526040820152f35b3461014c57602036600319011261014c576001600160a01b036116c2612144565b16608051526007602052602060406080512054604051908152f35b3461014c57604036600319011261014c576004356024356001600160401b03811161014c5761171090369060040161218a565b908260805152600360205260406080512061173f600b82015460ff8116908161195e575b8161194f57506121f9565b600a81015462093a80810190818111610d7557620bdd8001809111610d7557604051631285164360e11b8152600481018690527f00000000000000000000000000000000000000000000000000000000000000006001600160a01b031691421190602081602481865afa908115610c06576080519161191d575b506007840154118115611915575b50156118d957803b1561014c576040519063053884b760e11b82528560048301528160248160805193608051905af18015610c06576118c0575b50546001600160a01b03908116907f000000000000000000000000000000000000000000000000000000000000000016803b1561014c5760405191635f1ce3fd60e11b835260048301528160248160805193608051905af18015610c06576118a7575b507f20284ddd829f53a99f8008667da8056e21c60ac449fa325d9cad7d79203030079161189e6040519283926020845260208401916125e5565b0390a260805180f35b6080516118b391612260565b60805161014c5783611864565b6080516118cc91612260565b60805161014c5784611801565b60405162461bcd60e51b81526020600482015260146024820152733737903232b330bab63a1031b7b73234ba34b7b760611b6044820152606490fd5b9050866117c7565b90506020813d602011611947575b8161193860209383612260565b81010312610dd25751876117b9565b3d915061192b565b60ff915060101c161586610230565b905060ff8160081c161590611734565b3461014c5760805136600319011261014c576020600254604051908152f35b3461014c57604036600319011261014c576004356001600160401b03811161014c576119bd90369060040161215a565b906024356001600160401b03811161014c5760809260ff926119e66119ee93369060040161215a565b92909161232e565b9293909160405194855216602084015260408301526060820152f35b3461014c57602036600319011261014c576001600160a01b03611a2b612144565b16608051526006602052602060ff60406080512054166040519015158152f35b3461014c5760805136600319011261014c57602060405162093a808152f35b3461014c5760805136600319011261014c576040517f00000000000000000000000000000000000000000000000000000000000000006001600160a01b03168152602090f35b3461014c57602036600319011261014c5760043580608051526003602052604060805120611af2600b82015460ff81169081611ead575b81611e9e57506121f9565b611b0660018060a01b038254163314612281565b600981019060ff825416916004831015611e6757600a820190815462093a80810190818111610d7557814210611e3657620bdd8001908110610d75574211611e0157600583015460038160021c9514611de9575b50608080518681526004602052905160408120909694957f00000000000000000000000000000000000000000000000000000000000000006001600160a01b031695919491925b8554891015611d0f576001611bb68a886121b7565b50015460021c600360ff87541614611ce2575b6002611bd58b896121b7565b5001611be28282546122ba565b9055611bee8a886121b7565b50546001600160a01b0316883b1561014c5760405190631facb04d60e31b82528660048301526024820152816044820152608051816064816080518d5af18015610c0657611cc9575b50611c428a886121b7565b505460405163b85db98360e01b81526001600160a01b03909116600482015260248101919091526020816044818b5afa908115610c065760805191611c97575b50611c8f906001926122ba565b980197611ba1565b90506020813d8211611cc1575b81611cb160209383612260565b81010312610dd257516001611c82565b3d9150611ca4565b608051611cd591612260565b60805161014c578a611c37565b50611d0a6001611cf28b896121b7565b5001546002611d018c8a6121b7565b500154906122db565b611bc9565b8492918888803b1561014c576040519063a03f628d60e01b82528760048301528360248301528160448160805193608051905af18015610c0657611dd0575b5080600860079201611d618582546122ba565b905501611d6f8282546122ba565b9055600160ff8554160160ff8111610d75577f373c69f12db78bd364600fe62a1bb3dd1c266b8689c33769712be3cab0017a909460609460ff809316831983541617825542905554169160405192835260208301526040820152a260805180f35b608051611ddc91612260565b60805161014c5786611d4e565b611dfa9194506007840154906122db565b9285611b5a565b60405162461bcd60e51b815260206004820152600d60248201526c19dc9858d948195e1c1a5c9959609a1b6044820152606490fd5b60405162461bcd60e51b8152602060048201526009602482015268746f6f206561726c7960b81b6044820152606490fd5b60405162461bcd60e51b815260206004820152600f60248201526e616c6c2070686173657320646f6e6560881b6044820152606490fd5b60ff915060101c161584610230565b905060ff8160081c161590611ae7565b3461014c5760805136600319011261014c576040517f00000000000000000000000000000000000000000000000000000000000000006001600160a01b03168152602090f35b3461014c5760805136600319011261014c576001546040516001600160a01b039091168152602090f35b3461014c5760805136600319011261014c576040517f00000000000000000000000000000000000000000000000000000000000000006001600160a01b03168152602090f35b34610dd257611f813661212e565b815f52600360205260405f2090600b820190611fad825460ff8116908161195e578161194f57506121f9565b604051635d21995760e11b81526004810185905260248101919091523360448201526020816064815f7f00000000000000000000000000000000000000000000000000000000000000006001600160a01b03165af19081156120f1575f916120fc575b501561201c5760805180f35b805461ffff191661010017905580546001600160a01b039081165f908152600660205260409020805460ff1916905590547f000000000000000000000000000000000000000000000000000000000000000082169116813b15610dd2575f91602483926040519485938492630598b44360e51b845260048401525af180156120f1576120dd575b506120ad816127df565b7fc4dff47ea69420c81e6352d791c3f5f2df465ce5d4973bf6d2865b9cf93919e3608051608051a2808080611599565b5f6120e791612260565b5f608052816120a3565b6040513d5f823e3d90fd5b90506020813d602011612126575b8161211760209383612260565b81010312610dd2575184612010565b3d915061210a565b6040906003190112610dd2576004359060243590565b600435906001600160a01b0382168203610dd257565b9181601f84011215610dd2578235916001600160401b038311610dd2576020808501948460051b010111610dd257565b9181601f84011215610dd2578235916001600160401b038311610dd25760208381860195010111610dd257565b80548210156121d0575f52600360205f20910201905f90565b634e487b7160e01b5f52603260045260245ffd5b80548210156121d0575f5260205f2001905f90565b1561220057565b60405162461bcd60e51b8152602060048201526008602482015267696e61637469766560c01b6044820152606490fd5b6101c081019081106001600160401b0382111761224c57604052565b634e487b7160e01b5f52604160045260245ffd5b90601f801991011681019081106001600160401b0382111761224c57604052565b1561228857565b60405162461bcd60e51b815260206004820152600a6024820152691bdb9b1e481859d95b9d60b21b6044820152606490fd5b919082018092116122c757565b634e487b7160e01b5f52601160045260245ffd5b919082039182116122c757565b90816020910312610dd257518015158103610dd25790565b90816060910312610dd2578051916040602083015192015190565b818102929181159184041417156122c757565b919290928184036125ae576040516301913d8d60e01b81523360048201527f00000000000000000000000000000000000000000000000000000000000000006001600160a01b03169490602081602481895afa9081156120f1575f9161258f575b501561255a5761239e93612b40565b60405163380633d960e21b81523360048201529092606082602481865afa9384156120f1575f925f95612532575b5060405163826a406d60e01b81526004810184905294602086602481885afa9586156120f1575f966124f4575b50806124ee5750612710905b604051906308a48a2560e31b825260ff87168060048401526020836024818a5afa9283156120f1575f936124b9575b50602090602460405180998193635bccb62d60e11b835260048301525afa9586156120f1575f96612481575b5091612474612479926305f5e1009461231b565b61231b565b049193929190565b929095506020833d6020116124b1575b8161249e60209383612260565b81010312610dd257915194612474612460565b3d9150612491565b9092506020813d6020116124e6575b816124d560209383612260565b81010312610dd25751916020612434565b3d91506124c8565b90612405565b9095506020813d60201161252a575b8161251060209383612260565b81010312610dd2575160ff81168103610dd257945f6123f9565b3d9150612503565b90945061254f91925060603d606011611222576112118183612260565b50919091935f6123cc565b60405162461bcd60e51b815260206004820152600d60248201526c1cd8dbdc9948195e1c1a5c9959609a1b6044820152606490fd5b6125a8915060203d60201161104a5761103c8183612260565b5f61238f565b60405162461bcd60e51b815260206004820152600f60248201526e0d8cadccee8d040dad2e6dac2e8c6d608b1b6044820152606490fd5b908060209392818452848401375f828201840152601f01601f1916010190565b1561260c57565b60405162461bcd60e51b815260206004820152600a60248201526937b7363c9037bbb732b960b11b6044820152606490fd5b7f00000000000000000000000000000000000000000000000000000000000000006001600160a01b031633036126cd57805f52600360205260405f2090600b82019182549260ff8416156126c75762ff00ff19909316620100001790925590546001600160a01b03165f908152600660205260409020805460ff191690556126c5906127df565b565b50505050565b60405162461bcd60e51b815260206004820152600a6024820152691bdb9b1e481d985d5b1d60b21b6044820152606490fd5b5f1981146122c75760010190565b90602080835192838152019201905f5b81811061272a5750505090565b82516001600160a01b031684526020938401939092019160010161271d565b90602080835192838152019201905f5b8181106127665750505090565b8251845260209384019390920191600101612759565b91908110156121d05760051b0190565b356001600160a01b0381168103610dd25790565b805180835260209291819084018484015e5f828201840152601f01601f1916010190565b6001600160401b03811161224c57601f01601f191660200190565b905f915f52600360205260405f2091604051906127fb82612230565b83549360018060a01b038516835260018060a01b0360018201541660208401526002810154946040840195865260ff600b81600385015416936060870194855260048101546080880152600581015460a0880152600681015460c0880152600781015460e0880152600881015461010088015282600982015416610120880152600a81015461014088015201548181161515610160870152818160081c16151561018087015260101c1615156101a085015260405160208101916001600160601b03199060601b168252601481526128d4603482612260565b519020925192946001600160a01b037f000000000000000000000000000000000000000000000000000000000000000081169416843b15610dd25760405190637488a1c360e01b825287600483015260248201525f8160448183895af180156120f157612b29575b506129479051612be6565b833b15612ade57826129a0916040518093819263043c4ea360e21b83528a600484015260606024840152600e60648401526d7a6b6372656469742e73636f726560901b608484015260a0604484015260a48301906127a0565b038183885af18015612b1e57908391612b09575b505060ff6129c3915116612be6565b823b15612b055781612a1b916040518093819263043c4ea360e21b835289600484015260606024840152600d60648401526c3d35b1b932b234ba173a34b2b960991b608484015260a0604484015260a48301906127a0565b038183875af18015612afa57908291612ae2575b50509060405193612a41604086612260565b600585526466616c736560d81b6020860152813b15612ade57938291612ab694958360405180978195829463043c4ea360e21b845260048401526060602484015260136064840152723d35b1b932b234ba1730b1ba34bb32a637b0b760691b608484015260a0604484015260a48301906127a0565b03925af18015612ad157612ac8575050565b6126c591612260565b50604051903d90823e3d90fd5b8280fd5b81612aec91612260565b612af757805f612a2f565b80fd5b6040513d84823e3d90fd5b5080fd5b81612b1391612260565b612b0557815f6129b4565b6040513d85823e3d90fd5b612b369193505f90612260565b5f9161294761293c565b5f94938593915b838510612b55575050505050565b9091929395612ba7600191828060a01b03612b74610cba8b8a8861277c565b165f52600760205260405f20548015612bb2575b612ba061271091612b9a8c898b61277c565b3561231b565b04906122ba565b960193929190612b47565b50612710612b88565b6001600160401b03811161224c5760051b60200190565b80518210156121d05760209160051b010190565b8015612c8b575f81805b612c775750612bfe816127c4565b90612c0c6040519283612260565b808252601f19612c1b826127c4565b013660208401375b80928015612c70575f1982019182116122c7578193600a820660300192836030116122c757845111156121d057600a9260f81b6001600160f81b0319165f1a908401601f01530491612c23565b5050905090565b90612c83600a916126ff565b910480612bf0565b50604051612c9a604082612260565b60018152600360fc1b60208201529056fea264697066735822122029bd3d812635443bf3a7f10a3d92a09d9affc33b37488e8ec45bba28b992b08c64736f6c63430008210033","linkReferences":{}},"methodIdentifiers":{"GRACE_PERIOD()":"c1a287e2","PHASE_COUNT()":"fe66485c","PHASE_INTERVAL()":"1922e80d","agentLoans(address,uint256)":"9dff5556","assetQualityBps(address)":"826c56aa","bitGoRegistry()":"13e4f394","collateralVault()":"0bece79c","creditVerifier()":"b05c30d5","extendMilestone(bytes32,uint256)":"f91e2cfc","getQuote(address[],uint256[])":"2df6c3ad","hasActiveLoan(address)":"21d4f8db","loanCollateralPlans(bytes32,uint256)":"8b1b1549","loanCounter()":"34d9289e","loans(bytes32)":"c4a90815","openLoan(address[],uint256[],uint256,address,bytes)":"f6c9bbd9","owner()":"8da5cb5b","progressMilestone(bytes32)":"11d4fc74","recordDefault(bytes32)":"8fbd3d80","repay(bytes32,uint256)":"00f989ad","resolver()":"04f3bcec","setAssetQuality(address,uint256)":"fd2445bf","setZKCreditVerifier(address)":"8c8bb005","stealthRegistry()":"a7433704","triggerDefault(bytes32,string)":"664be4b6","zkCreditVerifier()":"08ac0da7"},"id":24}