{"abi":[{"type":"constructor","inputs":[{"name":"bitgo_","type":"address","internalType":"address"}],"stateMutability":"nonpayable"},{"type":"function","name":"bitGoRegistry","inputs":[],"outputs":[{"name":"","type":"address","internalType":"contract BitGoRegistry"}],"stateMutability":"view"},{"type":"function","name":"getStealth","inputs":[{"name":"loanId","type":"bytes32","internalType":"bytes32"}],"outputs":[{"name":"","type":"address","internalType":"address"}],"stateMutability":"view"},{"type":"function","name":"linkStealthAddress","inputs":[{"name":"stealthAddress","type":"address","internalType":"address"},{"name":"loanId","type":"bytes32","internalType":"bytes32"},{"name":"signature","type":"bytes","internalType":"bytes"}],"outputs":[],"stateMutability":"nonpayable"},{"type":"function","name":"linkStealthAddressBitGo","inputs":[{"name":"loanId","type":"bytes32","internalType":"bytes32"},{"name":"stealthAddress","type":"address","internalType":"address"},{"name":"bitGoAttestation","type":"bytes","internalType":"bytes"}],"outputs":[],"stateMutability":"nonpayable"},{"type":"function","name":"linkStealthAddressBitGoFor","inputs":[{"name":"agent","type":"address","internalType":"address"},{"name":"loanId","type":"bytes32","internalType":"bytes32"},{"name":"stealthAddress","type":"address","internalType":"address"},{"name":"bitGoAttestation","type":"bytes","internalType":"bytes"}],"outputs":[],"stateMutability":"nonpayable"},{"type":"function","name":"linkStealthAddressFor","inputs":[{"name":"agent","type":"address","internalType":"address"},{"name":"stealthAddress","type":"address","internalType":"address"},{"name":"loanId","type":"bytes32","internalType":"bytes32"},{"name":"signature","type":"bytes","internalType":"bytes"}],"outputs":[],"stateMutability":"nonpayable"},{"type":"function","name":"linkStealthAddressSelf","inputs":[{"name":"stealthAddress","type":"address","internalType":"address"},{"name":"loanId","type":"bytes32","internalType":"bytes32"},{"name":"signature","type":"bytes","internalType":"bytes"}],"outputs":[],"stateMutability":"nonpayable"},{"type":"function","name":"loanManager","inputs":[],"outputs":[{"name":"","type":"address","internalType":"address"}],"stateMutability":"view"},{"type":"function","name":"loanStealth","inputs":[{"name":"","type":"bytes32","internalType":"bytes32"}],"outputs":[{"name":"","type":"address","internalType":"address"}],"stateMutability":"view"},{"type":"function","name":"metaAddresses","inputs":[{"name":"","type":"address","internalType":"address"}],"outputs":[{"name":"","type":"bytes32","internalType":"bytes32"}],"stateMutability":"view"},{"type":"function","name":"owner","inputs":[],"outputs":[{"name":"","type":"address","internalType":"address"}],"stateMutability":"view"},{"type":"function","name":"registerMetaAddress","inputs":[{"name":"spendingPubKey","type":"bytes32","internalType":"bytes32"}],"outputs":[],"stateMutability":"nonpayable"},{"type":"function","name":"setLoanManager","inputs":[{"name":"manager","type":"address","internalType":"address"}],"outputs":[],"stateMutability":"nonpayable"},{"type":"function","name":"stealthToAgent","inputs":[{"name":"","type":"address","internalType":"address"}],"outputs":[{"name":"","type":"address","internalType":"address"}],"stateMutability":"view"},{"type":"event","name":"LoanManagerUpdated","inputs":[{"name":"manager","type":"address","indexed":true,"internalType":"address"}],"anonymous":false},{"type":"event","name":"MetaAddressRegistered","inputs":[{"name":"agent","type":"address","indexed":true,"internalType":"address"},{"name":"spendingPubKey","type":"bytes32","indexed":true,"internalType":"bytes32"}],"anonymous":false},{"type":"event","name":"StealthAddressLinked","inputs":[{"name":"agent","type":"address","indexed":true,"internalType":"address"},{"name":"stealthAddress","type":"address","indexed":true,"internalType":"address"},{"name":"loanId","type":"bytes32","indexed":true,"internalType":"bytes32"},{"name":"mode","type":"string","indexed":false,"internalType":"string"}],"anonymous":false}],"bytecode":{"object":"0x60a034608057601f610cdf38819003918201601f19168301916001600160401b03831184841017608457808492602094604052833981010312608057516001600160a01b038116908190036080575f80546001600160a01b03191633179055608052604051610c46908161009982396080518181816102580152610a000152f35b5f80fd5b634e487b7160e01b5f52604160045260245ffdfe60806040526004361015610011575f80fd5b5f3560e01c806235b539146100e957806301996e15146100d557806308974146146100b257806313e4f394146100e457806316bf44e3146100df5780632caa8512146100da5780634efb99f3146100d55780635772ae70146100d05780636f5566cf146100cb57806374b2c164146100c65780638da5cb5b146100c1578063b3ccbcfe146100bc578063c0a9e01f146100b75763d89448aa146100b2575f80fd5b6101ee565b6104d0565b6104a8565b610481565b610424565b6103e4565b61030a565b6101bc565b6102d2565b610287565b610243565b61014c565b600435906001600160a01b038216820361010457565b5f80fd5b602435906001600160a01b038216820361010457565b9181601f840112156101045782359167ffffffffffffffff8311610104576020838186019501011161010457565b34610104576080366003190112610104576101656100ee565b61016d610108565b906044356064359267ffffffffffffffff8411610104576101b46101986101ba95369060040161011e565b6101ad60018060a01b03600154163314610571565b36916105e7565b92610722565b005b34610104576020366003190112610104576004355f526004602052602060018060a01b0360405f205416604051908152f35b34610104576060366003190112610104576004356001600160a01b0381168103610104576044359060243567ffffffffffffffff83116101045761023c6101ad6101ba94369060040161011e565b9133610722565b34610104575f366003190112610104576040517f00000000000000000000000000000000000000000000000000000000000000006001600160a01b03168152602090f35b34610104576060366003190112610104576004356102a3610108565b906044359167ffffffffffffffff8311610104576102cb6101ad6101ba94369060040161011e565b913361099c565b34610104576020366003190112610104576001600160a01b036102f36100ee565b165f526002602052602060405f2054604051908152f35b34610104576020366003190112610104576103236100ee565b5f546001600160a01b031633036103b2576001600160a01b0316801561037b57600180546001600160a01b031916821790557f1dc4f84ee7313043091b27f406c2494a0c94127ded69968d246cb341249d5f165f80a2005b60405162461bcd60e51b815260206004820152600f60248201526e34b73b30b634b21036b0b730b3b2b960891b6044820152606490fd5b60405162461bcd60e51b815260206004820152600a60248201526937b7363c9037bbb732b960b11b6044820152606490fd5b34610104576020366003190112610104576001600160a01b036104056100ee565b165f526003602052602060018060a01b0360405f205416604051908152f35b346101045760803660031901126101045761043d6100ee565b602435906044356001600160a01b0381168103610104576064359267ffffffffffffffff84116101045761047b6101986101ba95369060040161011e565b9261099c565b34610104575f366003190112610104575f546040516001600160a01b039091168152602090f35b34610104575f366003190112610104576001546040516001600160a01b039091168152602090f35b3461010457602036600319011261010457600435335f52600260205260405f20546105375761050081151561062d565b335f8181526002602052604081208390557ffa3a40b979947298c0a325f9855141f4a585f9b0687eed751f2f4efa1bedd4789080a3005b60405162461bcd60e51b8152602060048201526012602482015271105b1c9958591e481c9959da5cdd195c995960721b6044820152606490fd5b1561057857565b60405162461bcd60e51b815260206004820152600c60248201526b37b7363c9036b0b730b3b2b960a11b6044820152606490fd5b634e487b7160e01b5f52604160045260245ffd5b90601f8019910116810190811067ffffffffffffffff8211176105e257604052565b6105ac565b92919267ffffffffffffffff82116105e25760405191610611601f8201601f1916602001846105c0565b829481845281830111610104578281602093845f960137010152565b1561063457565b60405162461bcd60e51b815260206004820152600b60248201526a496e76616c6964206b657960a81b6044820152606490fd5b1561066e57565b60405162461bcd60e51b815260206004820152600f60248201526e092dcecc2d8d2c840e6e8cac2d8e8d608b1b6044820152606490fd5b156106ac57565b60405162461bcd60e51b815260206004820152600e60248201526d105b1c9958591e481b1a5b9ad95960921b6044820152606490fd5b156106e957565b60405162461bcd60e51b8152602060048201526011602482015270496e76616c6964207369676e617475726560781b6044820152606490fd5b6001600160a01b0381165f90815260026020526040902092939290919054156108a957806108036107fe6108529360018060a01b03811696610765881515610667565b6107a76107a16107956107888560018060a01b03165f52600360205260405f2090565b546001600160a01b031690565b6001600160a01b031690565b156106a5565b604051606088811b6bffffffffffffffffffffffff1990811660208401908152603484018d90524660548501523090921b166074830152906107f681608881015b03601f1981018352826105c0565b519020610b3f565b6106e2565b6001600160a01b0381165f9081526003602052604090206108409084905b80546001600160a01b0319166001600160a01b03909216919091179055565b610821855f52600460205260405f2090565b7f994dcfae39ebbd6f6cc42aefc5f37646251f909655d5ed1c1243dd5f85c2062d6040519160018060a01b031691806108a48160609060208152600460208201526339b2b63360e11b60408201520190565b0390a4565b60405162461bcd60e51b815260206004820152600f60248201526e4e6f206d657461206164647265737360881b6044820152606490fd5b90816020910312610104575180151581036101045790565b6001600160a01b03918216815260208082019390935292166040830152608060608301819052835190830181905260a09390918291018484015e5f828201840152601f01601f1916010190565b6040513d5f823e3d90fd5b1561095757565b60405162461bcd60e51b815260206004820152601960248201527f696e76616c696420626974676f206174746573746174696f6e000000000000006044820152606490fd5b90926001600160a01b038316926109fb916020906109bb861515610667565b6109de6107a16107956107888660018060a01b03165f52600360205260405f2090565b6040518094819263afa19f0f60e01b8352858a89600486016108f8565b03815f7f00000000000000000000000000000000000000000000000000000000000000006001600160a01b03165af1918215610ac857610a4692610803915f91610a99575b50610950565b7f994dcfae39ebbd6f6cc42aefc5f37646251f909655d5ed1c1243dd5f85c2062d6040519160018060a01b031691806108a481606090602081526005602082015264626974676f60d81b60408201520190565b610abb915060203d602011610ac1575b610ab381836105c0565b8101906108e0565b5f610a40565b503d610aa9565b610945565b15610ad457565b60405162461bcd60e51b815260206004820152601860248201527f496e76616c6964207369676e6174757265206c656e67746800000000000000006044820152606490fd5b60ff601b9116019060ff8211610b2b57565b634e487b7160e01b5f52601160045260245ffd5b6020915f91610b516041835114610acd565b604051610b8f816107e88782019485603c917f19457468657265756d205369676e6564204d6573736167653a0a3332000000008252601c8201520190565b519020838201519160606040820151910151841a92601b8410610bf9575b90610bd891604051948594859094939260ff6060936080840197845216602083015260408201520152565b838052039060015afa15610ac8575f516001600160a01b0390811691161490565b9290610c07610bd892610b19565b93909150610bad56fea264697066735822122085971649b9010a3f5e0f07bc7173a42be53cea5f123de736ce14d83df15d160964736f6c63430008210033","linkReferences":{}},"methodIdentifiers":{"bitGoRegistry()":"13e4f394","getStealth(bytes32)":"4efb99f3","linkStealthAddress(address,bytes32,bytes)":"08974146","linkStealthAddressBitGo(bytes32,address,bytes)":"16bf44e3","linkStealthAddressBitGoFor(address,bytes32,address,bytes)":"74b2c164","linkStealthAddressFor(address,address,bytes32,bytes)":"0035b539","linkStealthAddressSelf(address,bytes32,bytes)":"d89448aa","loanManager()":"b3ccbcfe","loanStealth(bytes32)":"01996e15","metaAddresses(address)":"2caa8512","owner()":"8da5cb5b","registerMetaAddress(bytes32)":"c0a9e01f","setLoanManager(address)":"5772ae70","stealthToAgent(address)":"6f5566cf"},"id":25}