{"abi":[{"type":"constructor","inputs":[{"name":"groth16_","type":"address","internalType":"address"},{"name":"creditVerifier_","type":"address","internalType":"address"},{"name":"oracleSigner_","type":"address","internalType":"address"}],"stateMutability":"nonpayable"},{"type":"function","name":"MAX_SCORE","inputs":[],"outputs":[{"name":"","type":"uint256","internalType":"uint256"}],"stateMutability":"view"},{"type":"function","name":"MIN_SCORE","inputs":[],"outputs":[{"name":"","type":"uint256","internalType":"uint256"}],"stateMutability":"view"},{"type":"function","name":"acceptedMerkleRoots","inputs":[{"name":"","type":"uint256","internalType":"uint256"}],"outputs":[{"name":"","type":"bool","internalType":"bool"}],"stateMutability":"view"},{"type":"function","name":"creditVerifier","inputs":[],"outputs":[{"name":"","type":"address","internalType":"contract CreditVerifier"}],"stateMutability":"view"},{"type":"function","name":"groth16Verifier","inputs":[],"outputs":[{"name":"","type":"address","internalType":"contract IPolymarketGroth16Verifier"}],"stateMutability":"view"},{"type":"function","name":"latestNullifier","inputs":[{"name":"","type":"address","internalType":"address"}],"outputs":[{"name":"","type":"uint256","internalType":"uint256"}],"stateMutability":"view"},{"type":"function","name":"latestProofHash","inputs":[{"name":"","type":"address","internalType":"address"}],"outputs":[{"name":"","type":"bytes32","internalType":"bytes32"}],"stateMutability":"view"},{"type":"function","name":"latestZkScore","inputs":[{"name":"","type":"address","internalType":"address"}],"outputs":[{"name":"","type":"uint256","internalType":"uint256"}],"stateMutability":"view"},{"type":"function","name":"oracleSigner","inputs":[],"outputs":[{"name":"","type":"address","internalType":"address"}],"stateMutability":"view"},{"type":"function","name":"owner","inputs":[],"outputs":[{"name":"","type":"address","internalType":"address"}],"stateMutability":"view"},{"type":"function","name":"setAcceptedMerkleRoot","inputs":[{"name":"root","type":"uint256","internalType":"uint256"},{"name":"accepted","type":"bool","internalType":"bool"}],"outputs":[],"stateMutability":"nonpayable"},{"type":"function","name":"setOracleSigner","inputs":[{"name":"signer","type":"address","internalType":"address"}],"outputs":[],"stateMutability":"nonpayable"},{"type":"function","name":"submitZKScore","inputs":[{"name":"pA","type":"uint256[2]","internalType":"uint256[2]"},{"name":"pB","type":"uint256[2][2]","internalType":"uint256[2][2]"},{"name":"pC","type":"uint256[2]","internalType":"uint256[2]"},{"name":"publicSignals","type":"uint256[]","internalType":"uint256[]"},{"name":"oracleSignature","type":"bytes","internalType":"bytes"}],"outputs":[],"stateMutability":"nonpayable"},{"type":"function","name":"usedNullifiers","inputs":[{"name":"","type":"uint256","internalType":"uint256"}],"outputs":[{"name":"","type":"bool","internalType":"bool"}],"stateMutability":"view"},{"type":"function","name":"usedProofHashes","inputs":[{"name":"","type":"bytes32","internalType":"bytes32"}],"outputs":[{"name":"","type":"bool","internalType":"bool"}],"stateMutability":"view"},{"type":"event","name":"MerkleRootUpdated","inputs":[{"name":"root","type":"uint256","indexed":true,"internalType":"uint256"},{"name":"accepted","type":"bool","indexed":false,"internalType":"bool"}],"anonymous":false},{"type":"event","name":"OracleSignerUpdated","inputs":[{"name":"signer","type":"address","indexed":true,"internalType":"address"}],"anonymous":false},{"type":"event","name":"ZKScoreSubmitted","inputs":[{"name":"agent","type":"address","indexed":true,"internalType":"address"},{"name":"score","type":"uint256","indexed":false,"internalType":"uint256"},{"name":"merkleRoot","type":"uint256","indexed":false,"internalType":"uint256"},{"name":"nullifier","type":"uint256","indexed":false,"internalType":"uint256"},{"name":"proofHash","type":"bytes32","indexed":false,"internalType":"bytes32"}],"anonymous":false}],"bytecode":{"object":"0x60c0346101a657601f610eec38819003918201601f19168301916001600160401b038311848410176101aa578084926060946040528339810103126101a657610047816101be565b61005f6040610058602085016101be565b93016101be565b6001600160a01b0390911691821561016f576001600160a01b031690811561012a576001600160a01b03169182156100e5573360018060a01b03195f5416175f5560805260a05260018060a01b03196001541617600155604051610d1990816101d382396080518181816101a3015261098b015260a05181818161039d0152610a830152f35b60405162461bcd60e51b815260206004820152601560248201527f696e76616c6964206f7261636c65207369676e657200000000000000000000006044820152606490fd5b60405162461bcd60e51b815260206004820152601760248201527f696e76616c6964206372656469742076657269666965720000000000000000006044820152606490fd5b60405162461bcd60e51b815260206004820152600f60248201526e34b73b30b634b21033b937ba34189b60891b6044820152606490fd5b5f80fd5b634e487b7160e01b5f52604160045260245ffd5b51906001600160a01b03821682036101a65756fe60806040526004361015610011575f80fd5b5f3560e01c80630a501e50146101045780631709a61b146100ff57806319c813be146100fa57806327ff6223146100f557806328bff9db146100f05780632fa52c10146100eb578063367404ff146100e657806340b89270146100e15780638da5cb5b146100dc57806394109903146100d7578063aad24061146100d2578063b05c30d5146100cd578063d10a391d146100c8578063d87318b2146100c35763f69135e9146100be575f80fd5b6104f0565b6104b7565b610415565b610388565b610359565b61032c565b610305565b6102e9565b6102ba565b61028d565b6101ee565b6101d2565b61018e565b610166565b61012f565b602090600319011261012b576004356001600160a01b038116810361012b5790565b5f80fd5b3461012b576001600160a01b0361014536610109565b165f526006602052602060405f2054604051908152f35b5f91031261012b57565b3461012b575f36600319011261012b576001546040516001600160a01b039091168152602090f35b3461012b575f36600319011261012b576040517f00000000000000000000000000000000000000000000000000000000000000006001600160a01b03168152602090f35b3461012b575f36600319011261012b5760206040516103528152f35b3461012b576101fc36610109565b61021060018060a01b035f5416331461056c565b6001600160a01b0316801561025757600180546001600160a01b031916821790557f9787ad339c4bc9e4b4743a2e50da52ee5b40e7096843872095b8280a501522465f80a2005b60405162461bcd60e51b815260206004820152600e60248201526d34b73b30b634b21039b4b3b732b960911b6044820152606490fd5b3461012b576001600160a01b036102a336610109565b165f526005602052602060405f2054604051908152f35b3461012b57602036600319011261012b576004355f526002602052602060ff60405f2054166040519015158152f35b3461012b575f36600319011261012b57602060405161012c8152f35b3461012b575f36600319011261012b575f546040516001600160a01b039091168152602090f35b3461012b576001600160a01b0361034236610109565b165f526007602052602060405f2054604051908152f35b3461012b57602036600319011261012b576004355f526003602052602060ff60405f2054166040519015158152f35b3461012b575f36600319011261012b576040517f00000000000000000000000000000000000000000000000000000000000000006001600160a01b03168152602090f35b9060049160441161012b57565b9060c4916101041161012b57565b9181601f8401121561012b5782359167ffffffffffffffff831161012b576020838186019501011161012b57565b3461012b5761014036600319011261012b57610430366103cc565b3660c41161012b57610441366103d9565b906101043567ffffffffffffffff811161012b573660238201121561012b57806004013567ffffffffffffffff811161012b573660248260051b8401011161012b57610124359267ffffffffffffffff841161012b576104b5946104ab60249536906004016103e7565b95909401916108d3565b005b3461012b57602036600319011261012b576004355f526004602052602060ff60405f2054166040519015158152f35b8015150361012b57565b3461012b57604036600319011261012b576004357f3b539f34ac1c6abe05dcc3ff8b8c638fd782274ceee1543e712ec8f817c4ea8c6020602435610533816104e6565b61054760018060a01b035f5416331461056c565b835f526002825260405f2060ff1981541660ff831515161790556040519015158152a2005b1561057357565b60405162461bcd60e51b815260206004820152600a60248201526937b7363c9037bbb732b960b11b6044820152606490fd5b156105ac57565b60405162461bcd60e51b8152602060048201526012602482015271626164207075626c6963207369676e616c7360701b6044820152606490fd5b90156105ef5790565b634e487b7160e01b5f52603260045260245ffd5b90600110156105ef5760200190565b90600210156105ef5760400190565b1561062857565b60405162461bcd60e51b815260206004820152601260248201527173636f7265206f7574206f662072616e676560701b6044820152606490fd5b1561066957565b60405162461bcd60e51b815260206004820152600e60248201526d1b9d5b1b1a599a595c881d5cd95960921b6044820152606490fd5b634e487b7160e01b5f52604160045260245ffd5b90601f8019910116810190811067ffffffffffffffff8211176106d557604052565b61069f565b92919267ffffffffffffffff82116106d55760405191610704601f8201601f1916602001846106b3565b82948184528183011161012b578281602093845f960137010152565b1561072757565b60405162461bcd60e51b81526020600482015260116024820152701d5b985d5d1a1bdc9a5e9959081c9bdbdd607a1b6044820152606490fd5b9081602091031261012b5751610775816104e6565b90565b92919060409084375f604084015b600282106107c95750505060409060c0830137610120610100820181905281018390526001600160fb1b03831161012b576101409260051b809284830137010190565b6040808281866001953701930191019091610786565b6040513d5f823e3d90fd5b156107f157565b60405162461bcd60e51b815260206004820152601060248201526f34b73b30b634b2103d3590383937b7b360811b6044820152606490fd5b9392916040916bffffffffffffffffffffffff199060601b16855260148501375f605484015b600282106108825750505060409060d48301376001600160fb1b03831161012b576101149260051b809284830137010190565b604080828186600195370193019101909161084f565b1561089f57565b60405162461bcd60e51b815260206004820152600c60248201526b1c1c9bdbd9881c995d5cd95960a21b6044820152606490fd5b919094926108e460038210156105a5565b6108ee81836105e6565b359561096361095e6109586109038587610603565b359861090f8688610612565b359861012c8c101580610b86575b61092690610621565b61095161094c6109486109418d5f52600360205260405f2090565b5460ff1690565b1590565b610662565b36916106da565b88610b92565b610720565b6040516361971b8760e11b8152916020838061098784888760448c60048701610778565b03817f00000000000000000000000000000000000000000000000000000000000000006001600160a01b03165afa908115610b52576109d46109e8926109f6955f91610b57575b506107ea565b60405194859360446020860198338a610829565b03601f1981018352826106b3565b51902091610a1a610a15610948610941865f52600460205260405f2090565b610898565b610a3c610a2f835f52600360205260405f2090565b805460ff19166001179055565b610a51610a2f845f52600460205260405f2090565b335f90815260056020908152604080832087905560068252808320859055600790915290208390556001600160a01b037f00000000000000000000000000000000000000000000000000000000000000001692833b1561012b576040516301110fa760e41b8152336004820152602481018690526127106044820152935f908590606490829084905af1908115610b52577fb2f5ea788028ce34266b9558757aba120094988f24227df507839d9fec399dc394610b3392610b38575b506040519384933397859094939260609260808301968352602083015260408201520152565b0390a2565b80610b465f610b4c936106b3565b8061015c565b5f610b0d565b6107df565b610b79915060203d602011610b7f575b610b7181836106b3565b810190610760565b5f6109ce565b503d610b67565b506103528c111561091d565b90815f52600260205260ff60405f205416610bef57610bdb9160405160208101913060601b8352466034830152605482015260548152610bd36074826106b3565b519020610c1c565b6001546001600160a01b0391821691161490565b5050600190565b60ff601b9116019060ff8211610c0857565b634e487b7160e01b5f52601160045260245ffd5b906041815103610cdd576020915f91838101519060606040820151910151841a92601b8410610cc6575b90610cb391604051610c89816109e88a82019485603c917f19457468657265756d205369676e6564204d6573736167653a0a3332000000008252601c8201520190565b51902092604051948594859094939260ff6060936080840197845216602083015260408201520152565b838052039060015afa15610b52575f5190565b9290610cd4610cb392610bf6565b93909150610c46565b50505f9056fea264697066735822122032f349ca5b5556ff036b56ea59426904fbe04367f44a7e4c87e9744a5b4be1d164736f6c63430008210033","linkReferences":{}},"methodIdentifiers":{"MAX_SCORE()":"27ff6223","MIN_SCORE()":"40b89270","acceptedMerkleRoots(uint256)":"367404ff","creditVerifier()":"b05c30d5","groth16Verifier()":"19c813be","latestNullifier(address)":"0a501e50","latestProofHash(address)":"94109903","latestZkScore(address)":"2fa52c10","oracleSigner()":"1709a61b","owner()":"8da5cb5b","setAcceptedMerkleRoot(uint256,bool)":"f69135e9","setOracleSigner(address)":"28bff9db","submitZKScore(uint256[2],uint256[2][2],uint256[2],uint256[],bytes)":"d10a391d","usedNullifiers(uint256)":"aad24061","usedProofHashes(bytes32)":"d87318b2"},"id":27}