{"abi":[{"type":"constructor","inputs":[],"stateMutability":"nonpayable"},{"type":"function","name":"addr","inputs":[{"name":"node","type":"bytes32","internalType":"bytes32"}],"outputs":[{"name":"","type":"address","internalType":"address"}],"stateMutability":"view"},{"type":"function","name":"contenthash","inputs":[{"name":"node","type":"bytes32","internalType":"bytes32"}],"outputs":[{"name":"","type":"bytes","internalType":"bytes"}],"stateMutability":"view"},{"type":"function","name":"controllers","inputs":[{"name":"","type":"address","internalType":"address"}],"outputs":[{"name":"","type":"bool","internalType":"bool"}],"stateMutability":"view"},{"type":"function","name":"getText","inputs":[{"name":"node","type":"bytes32","internalType":"bytes32"},{"name":"key","type":"string","internalType":"string"}],"outputs":[{"name":"","type":"string","internalType":"string"}],"stateMutability":"view"},{"type":"function","name":"nodeAddr","inputs":[{"name":"","type":"bytes32","internalType":"bytes32"}],"outputs":[{"name":"","type":"address","internalType":"address"}],"stateMutability":"view"},{"type":"function","name":"nodeContenthash","inputs":[{"name":"","type":"bytes32","internalType":"bytes32"}],"outputs":[{"name":"","type":"bytes","internalType":"bytes"}],"stateMutability":"view"},{"type":"function","name":"nodeOwner","inputs":[{"name":"","type":"bytes32","internalType":"bytes32"}],"outputs":[{"name":"","type":"address","internalType":"address"}],"stateMutability":"view"},{"type":"function","name":"nodeText","inputs":[{"name":"","type":"bytes32","internalType":"bytes32"},{"name":"","type":"string","internalType":"string"}],"outputs":[{"name":"","type":"string","internalType":"string"}],"stateMutability":"view"},{"type":"function","name":"owner","inputs":[],"outputs":[{"name":"","type":"address","internalType":"address"}],"stateMutability":"view"},{"type":"function","name":"registerENS","inputs":[{"name":"node","type":"bytes32","internalType":"bytes32"},{"name":"owner_","type":"address","internalType":"address"}],"outputs":[],"stateMutability":"nonpayable"},{"type":"function","name":"registerNode","inputs":[{"name":"node","type":"bytes32","internalType":"bytes32"},{"name":"owner_","type":"address","internalType":"address"}],"outputs":[],"stateMutability":"nonpayable"},{"type":"function","name":"resolve","inputs":[{"name":"node","type":"bytes32","internalType":"bytes32"}],"outputs":[{"name":"","type":"address","internalType":"address"}],"stateMutability":"view"},{"type":"function","name":"setAddr","inputs":[{"name":"node","type":"bytes32","internalType":"bytes32"},{"name":"account","type":"address","internalType":"address"}],"outputs":[],"stateMutability":"nonpayable"},{"type":"function","name":"setContenthash","inputs":[{"name":"node","type":"bytes32","internalType":"bytes32"},{"name":"value","type":"bytes","internalType":"bytes"}],"outputs":[],"stateMutability":"nonpayable"},{"type":"function","name":"setController","inputs":[{"name":"controller","type":"address","internalType":"address"},{"name":"allowed","type":"bool","internalType":"bool"}],"outputs":[],"stateMutability":"nonpayable"},{"type":"function","name":"setText","inputs":[{"name":"node","type":"bytes32","internalType":"bytes32"},{"name":"key","type":"string","internalType":"string"},{"name":"value","type":"string","internalType":"string"}],"outputs":[],"stateMutability":"nonpayable"},{"type":"function","name":"text","inputs":[{"name":"node","type":"bytes32","internalType":"bytes32"},{"name":"key","type":"string","internalType":"string"}],"outputs":[{"name":"","type":"string","internalType":"string"}],"stateMutability":"view"},{"type":"function","name":"texts","inputs":[{"name":"node","type":"bytes32","internalType":"bytes32"},{"name":"key","type":"string","internalType":"string"}],"outputs":[{"name":"","type":"string","internalType":"string"}],"stateMutability":"view"},{"type":"event","name":"AddrChanged","inputs":[{"name":"node","type":"bytes32","indexed":true,"internalType":"bytes32"},{"name":"addr","type":"address","indexed":false,"internalType":"address"}],"anonymous":false},{"type":"event","name":"ContenthashChanged","inputs":[{"name":"node","type":"bytes32","indexed":true,"internalType":"bytes32"},{"name":"value","type":"bytes","indexed":false,"internalType":"bytes"}],"anonymous":false},{"type":"event","name":"ControllerSet","inputs":[{"name":"controller","type":"address","indexed":true,"internalType":"address"},{"name":"allowed","type":"bool","indexed":false,"internalType":"bool"}],"anonymous":false},{"type":"event","name":"ENSRegistered","inputs":[{"name":"node","type":"bytes32","indexed":true,"internalType":"bytes32"},{"name":"owner","type":"address","indexed":true,"internalType":"address"}],"anonymous":false},{"type":"event","name":"TextChanged","inputs":[{"name":"node","type":"bytes32","indexed":true,"internalType":"bytes32"},{"name":"key","type":"string","indexed":false,"internalType":"string"},{"name":"value","type":"string","indexed":false,"internalType":"string"}],"anonymous":false}],"bytecode":{"object":"0x60808060405234603b573360018060a01b03195f5416175f55335f52600160205260405f20600160ff19825416179055610b2e90816100408239f35b5f80fdfe60806040526004361015610011575f80fd5b5f3560e01c8063088cb787146102f157806310f13a8c14610692578063304e6ade1461053f57806334083de71461050b5780633b3b57de1461050657806359d1d43c146101155780635c23bdf5146105065780637488a1c31461044b5780638da5cb5b146104245780638f41463f146103f2578063ad428dac14610115578063ba2473cc14610333578063bc1c58d1146102f1578063d5fa2b001461020f578063da8c229e146101d2578063e0dba60f1461011a578063ea5822c6146101155763ff75542b146100df575f80fd5b34610111576020366003190112610111576004355f526002602052602060018060a01b0360405f205416604051908152f35b5f80fd5b610a03565b34610111576040366003190112610111576101336109ed565b60243590811515809203610111575f546001600160a01b031633036101a05760207f9c1e55b2ea976b1ce106746d9325847e838c89adca542764df43b80cadb59b049160018060a01b031692835f526001825260405f2060ff1981541660ff8316179055604051908152a2005b60405162461bcd60e51b815260206004820152600a60248201526937b7363c9037bbb732b960b11b6044820152606490fd5b34610111576020366003190112610111576001600160a01b036101f36109ed565b165f526001602052602060ff60405f2054166040519015158152f35b346101115760403660031901126101115760043561022b6109d7565b815f52600260205260018060a01b0360405f205416331480156102db575b156102a5575f8281526003602090815260409182902080546001600160a01b0319166001600160a01b03909416938417905590519182527f52d7d861f09ab3d26239d492e8968629f95e9e318cf0b73bfddc441522a15fd291a2005b60405162461bcd60e51b815260206004820152600e60248201526d1b9bdd08185d5d1a1bdc9a5e995960921b6044820152606490fd5b50335f52600160205260ff60405f205416610249565b34610111576020366003190112610111576004355f52600560205261032f61031b60405f206108b1565b604051918291602083526020830190610951565b0390f35b346101115760403660031901126101115760243567ffffffffffffffff8111610111573660238201121561011157806004013567ffffffffffffffff81116103de576040519161038d601f8301601f19166020018461088f565b818352602083019036602484830101116101115761032f935f60208561031b9660248396018737830101526004355f526004825260405f20604051938492518091845e8201908152030190206108b1565b634e487b7160e01b5f52604160045260245ffd5b34610111576020366003190112610111576004355f526003602052602060018060a01b0360405f205416604051908152f35b34610111575f366003190112610111575f546040516001600160a01b039091168152602090f35b34610111576040366003190112610111576004356104676109d7565b335f52600160205261047f60ff60405f205416610a3c565b5f828152600260205260409020546001600160a01b03161561049d57005b5f82815260026020908152604080832080546001600160a01b03199081166001600160a01b0396909616958617909155600390925282208054909116831790559091907f5b1122028aad365685c61abbaaf27c6ecae87faf63dca3a6588eb486e12b8c859080a3005b6103f2565b34610111576040366003190112610111576004356105276109d7565b335f52600160205261046760ff60405f205416610a3c565b346101115761054d366109a3565b9190335f52600160205261056760ff60405f205416610a3c565b815f52600560205260405f209267ffffffffffffffff81116103de57610597816105918654610857565b86610a7a565b5f93601f8211600114610610576105e682807fe379c1624ed7e714cc0937528a32359d69d5281337765313dba4e081b72d757896975f91610605575b508160011b915f199060031b1c19161790565b90555b610600604051928392602084526020840191610ad8565b0390a2005b9050850135886105d3565b601f19821694815f5260205f20905f5b87811061067a5750837fe379c1624ed7e714cc0937528a32359d69d5281337765313dba4e081b72d7578969710610661575b5050600182811b0190556105e9565b8401355f19600385901b60f8161c191690558580610652565b90916020600181928589013581550193019101610620565b346101115760603660031901126101115760043560243567ffffffffffffffff8111610111576106c6903690600401610975565b919060443567ffffffffffffffff8111610111576106e8903690600401610975565b9390335f52600160205261070260ff60405f205416610a3c565b835f52600460205260405f206020604051809285878337858201908152030190209467ffffffffffffffff81116103de57610747816107418854610857565b88610a7a565b5f95601f82116001146107ce5790610600929161079b82807fd8c9334b1a9c2f9da342a0a2b32629c1a229b6445dad78947f674b44444a7550999a5f916107c357508160011b915f199060031b1c19161790565b90555b6107b5604051958695604087526040870191610ad8565b918483036020860152610ad8565b90508501358b6105d3565b601f198216815f5260205f20905f5b81811061083f5750907fd8c9334b1a9c2f9da342a0a2b32629c1a229b6445dad78947f674b44444a75509798846106009695949310610826575b5050600182811b01905561079e565b8401355f19600385901b60f8161c191690558880610817565b858a013583556020998a0199600190930192016107dd565b90600182811c92168015610885575b602083101461087157565b634e487b7160e01b5f52602260045260245ffd5b91607f1691610866565b90601f8019910116810190811067ffffffffffffffff8211176103de57604052565b9060405191825f8254926108c484610857565b808452936001811690811561092f57506001146108eb575b506108e99250038361088f565b565b90505f9291925260205f20905f915b8183106109135750509060206108e9928201015f6108dc565b60209193508060019154838589010152019101909184926108fa565b9050602092506108e994915060ff191682840152151560051b8201015f6108dc565b805180835260209291819084018484015e5f828201840152601f01601f1916010190565b9181601f840112156101115782359167ffffffffffffffff8311610111576020838186019501011161011157565b90604060031983011261011157600435916024359067ffffffffffffffff8211610111576109d391600401610975565b9091565b602435906001600160a01b038216820361011157565b600435906001600160a01b038216820361011157565b346101115761032f61031b6020610a19366109a3565b92915f526004825260405f208360405194859384378201908152030190206108b1565b15610a4357565b60405162461bcd60e51b815260206004820152600f60248201526e37b7363c9031b7b73a3937b63632b960891b6044820152606490fd5b919091601f8311610a8b575b505050565b818311610a9757505050565b5f5260205f206020601f830160051c9210610ad0575b81601f9101920160051c03905f5b82811015610a86575f82820155600101610abb565b5f9150610aad565b908060209392818452848401375f828201840152601f01601f191601019056fea2646970667358221220eb5880e4da4690540254e7e455bc7dc604b6bb88450119c54ad92b96f4e8c04464736f6c63430008210033","linkReferences":{}},"methodIdentifiers":{"addr(bytes32)":"3b3b57de","contenthash(bytes32)":"bc1c58d1","controllers(address)":"da8c229e","getText(bytes32,string)":"ad428dac","nodeAddr(bytes32)":"8f41463f","nodeContenthash(bytes32)":"088cb787","nodeOwner(bytes32)":"ff75542b","nodeText(bytes32,string)":"ba2473cc","owner()":"8da5cb5b","registerENS(bytes32,address)":"7488a1c3","registerNode(bytes32,address)":"34083de7","resolve(bytes32)":"5c23bdf5","setAddr(bytes32,address)":"d5fa2b00","setContenthash(bytes32,bytes)":"304e6ade","setController(address,bool)":"e0dba60f","setText(bytes32,string,string)":"10f13a8c","text(bytes32,string)":"59d1d43c","texts(bytes32,string)":"ea5822c6"},"id":26}